{
  "_format": "hh-sol-artifact-1",
  "contractName": "DividendDistributor",
  "sourceName": "contracts/PolyFloki.sol",
  "abi": [
    {
      "inputs": [
        {
          "internalType": "address",
          "name": "_router",
          "type": "address"
        },
        {
          "internalType": "address",
          "name": "rewardToken",
          "type": "address"
        }
      ],
      "stateMutability": "nonpayable",
      "type": "constructor"
    },
    {
      "inputs": [],
      "name": "REWARD",
      "outputs": [
        {
          "internalType": "contract IBEP20",
          "name": "",
          "type": "address"
        }
      ],
      "stateMutability": "view",
      "type": "function"
    },
    {
      "inputs": [],
      "name": "WBNB",
      "outputs": [
        {
          "internalType": "address",
          "name": "",
          "type": "address"
        }
      ],
      "stateMutability": "view",
      "type": "function"
    },
    {
      "inputs": [],
      "name": "_token",
      "outputs": [
        {
          "internalType": "address",
          "name": "",
          "type": "address"
        }
      ],
      "stateMutability": "view",
      "type": "function"
    },
    {
      "inputs": [],
      "name": "claimDividend",
      "outputs": [],
      "stateMutability": "nonpayable",
      "type": "function"
    },
    {
      "inputs": [],
      "name": "deposit",
      "outputs": [],
      "stateMutability": "payable",
      "type": "function"
    },
    {
      "inputs": [],
      "name": "dividendsPerShare",
      "outputs": [
        {
          "internalType": "uint256",
          "name": "",
          "type": "uint256"
        }
      ],
      "stateMutability": "view",
      "type": "function"
    },
    {
      "inputs": [],
      "name": "dividendsPerShareAccuracyFactor",
      "outputs": [
        {
          "internalType": "uint256",
          "name": "",
          "type": "uint256"
        }
      ],
      "stateMutability": "view",
      "type": "function"
    },
    {
      "inputs": [
        {
          "internalType": "address",
          "name": "shareholder",
          "type": "address"
        }
      ],
      "name": "getUnpaidEarnings",
      "outputs": [
        {
          "internalType": "uint256",
          "name": "",
          "type": "uint256"
        }
      ],
      "stateMutability": "view",
      "type": "function"
    },
    {
      "inputs": [],
      "name": "minDistribution",
      "outputs": [
        {
          "internalType": "uint256",
          "name": "",
          "type": "uint256"
        }
      ],
      "stateMutability": "view",
      "type": "function"
    },
    {
      "inputs": [],
      "name": "minPeriod",
      "outputs": [
        {
          "internalType": "uint256",
          "name": "",
          "type": "uint256"
        }
      ],
      "stateMutability": "view",
      "type": "function"
    },
    {
      "inputs": [
        {
          "internalType": "uint256",
          "name": "gas",
          "type": "uint256"
        }
      ],
      "name": "process",
      "outputs": [],
      "stateMutability": "nonpayable",
      "type": "function"
    },
    {
      "inputs": [
        {
          "internalType": "address",
          "name": "receiver",
          "type": "address"
        }
      ],
      "name": "purge",
      "outputs": [],
      "stateMutability": "nonpayable",
      "type": "function"
    },
    {
      "inputs": [],
      "name": "router",
      "outputs": [
        {
          "internalType": "contract IDEXRouter",
          "name": "",
          "type": "address"
        }
      ],
      "stateMutability": "view",
      "type": "function"
    },
    {
      "inputs": [
        {
          "internalType": "uint256",
          "name": "_minPeriod",
          "type": "uint256"
        },
        {
          "internalType": "uint256",
          "name": "_minDistribution",
          "type": "uint256"
        }
      ],
      "name": "setDistributionCriteria",
      "outputs": [],
      "stateMutability": "nonpayable",
      "type": "function"
    },
    {
      "inputs": [
        {
          "internalType": "address",
          "name": "shareholder",
          "type": "address"
        },
        {
          "internalType": "uint256",
          "name": "amount",
          "type": "uint256"
        }
      ],
      "name": "setShare",
      "outputs": [],
      "stateMutability": "nonpayable",
      "type": "function"
    },
    {
      "inputs": [
        {
          "internalType": "address",
          "name": "",
          "type": "address"
        }
      ],
      "name": "shares",
      "outputs": [
        {
          "internalType": "uint256",
          "name": "amount",
          "type": "uint256"
        },
        {
          "internalType": "uint256",
          "name": "totalExcluded",
          "type": "uint256"
        },
        {
          "internalType": "uint256",
          "name": "totalRealised",
          "type": "uint256"
        }
      ],
      "stateMutability": "view",
      "type": "function"
    },
    {
      "inputs": [],
      "name": "totalDistributed",
      "outputs": [
        {
          "internalType": "uint256",
          "name": "",
          "type": "uint256"
        }
      ],
      "stateMutability": "view",
      "type": "function"
    },
    {
      "inputs": [],
      "name": "totalDividends",
      "outputs": [
        {
          "internalType": "uint256",
          "name": "",
          "type": "uint256"
        }
      ],
      "stateMutability": "view",
      "type": "function"
    },
    {
      "inputs": [],
      "name": "totalShares",
      "outputs": [
        {
          "internalType": "uint256",
          "name": "",
          "type": "uint256"
        }
      ],
      "stateMutability": "view",
      "type": "function"
    }
  ],
  "bytecode": "0x608060405273bb4cdb9cbd36b01bd1cbaebf2de08d9173bc095c600260006101000a81548173ffffffffffffffffffffffffffffffffffffffff021916908373ffffffffffffffffffffffffffffffffffffffff1602179055506ec097ce7bc90715b34b9f1000000000600c55610708600d55633b9aca00600e553480156200008757600080fd5b50604051620024d2380380620024d28339818101604052810190620000ad9190620001e0565b600073ffffffffffffffffffffffffffffffffffffffff168273ffffffffffffffffffffffffffffffffffffffff161415620000fe577310ed43c718714eb63d5aa57b78b54704e256024e62000100565b815b600360006101000a81548173ffffffffffffffffffffffffffffffffffffffff021916908373ffffffffffffffffffffffffffffffffffffffff160217905550336000806101000a81548173ffffffffffffffffffffffffffffffffffffffff021916908373ffffffffffffffffffffffffffffffffffffffff16021790555080600160006101000a81548173ffffffffffffffffffffffffffffffffffffffff021916908373ffffffffffffffffffffffffffffffffffffffff16021790555050506200026f565b600081519050620001da8162000255565b92915050565b60008060408385031215620001f457600080fd5b60006200020485828601620001c9565b92505060206200021785828601620001c9565b9150509250929050565b60006200022e8262000235565b9050919050565b600073ffffffffffffffffffffffffffffffffffffffff82169050919050565b620002608162000221565b81146200026c57600080fd5b50565b612253806200027f6000396000f3fe6080604052600436106101145760003560e01c8063cab34c08116100a0578063efca2eed11610064578063efca2eed14610372578063f0fc6bca1461039d578063f887ea40146103b4578063ffb2c479146103df578063ffd49c841461040857610114565b8063cab34c08146102a8578063ce7c2ac2146102d3578063d0e30db014610312578063e2d2e2191461031c578063ecd0c0c31461034757610114565b80633a98ef39116100e75780633a98ef39146101d35780634fab0ae8146101fe5780638dd9500214610229578063997664d714610254578063a6871bc31461027f57610114565b806311ce023d1461011957806314b6ca961461014457806328fd31981461016d5780632d48e896146101aa575b600080fd5b34801561012557600080fd5b5061012e610433565b60405161013b9190611e17565b60405180910390f35b34801561015057600080fd5b5061016b60048036038101906101669190611aad565b610439565b005b34801561017957600080fd5b50610194600480360381019061018f9190611a84565b6106f8565b6040516101a19190611e17565b60405180910390f35b3480156101b657600080fd5b506101d160048036038101906101cc9190611b64565b610812565b005b3480156101df57600080fd5b506101e861087c565b6040516101f59190611e17565b60405180910390f35b34801561020a57600080fd5b50610213610882565b6040516102209190611e17565b60405180910390f35b34801561023557600080fd5b5061023e610888565b60405161024b9190611cef565b60405180910390f35b34801561026057600080fd5b506102696108ae565b6040516102769190611e17565b60405180910390f35b34801561028b57600080fd5b506102a660048036038101906102a19190611a84565b6108b4565b005b3480156102b457600080fd5b506102bd610a6f565b6040516102ca9190611d33565b60405180910390f35b3480156102df57600080fd5b506102fa60048036038101906102f59190611a84565b610a95565b60405161030993929190611e32565b60405180910390f35b61031a610abf565b005b34801561032857600080fd5b50610331610f21565b60405161033e9190611e17565b60405180910390f35b34801561035357600080fd5b5061035c610f27565b6040516103699190611cef565b60405180910390f35b34801561037e57600080fd5b50610387610f4b565b6040516103949190611e17565b60405180910390f35b3480156103a957600080fd5b506103b2610f51565b005b3480156103c057600080fd5b506103c9610f5c565b6040516103d69190611d4e565b60405180910390f35b3480156103eb57600080fd5b5061040660048036038101906104019190611b12565b610f82565b005b34801561041457600080fd5b5061041d611162565b60405161042a9190611e17565b60405180910390f35b600c5481565b60008054906101000a900473ffffffffffffffffffffffffffffffffffffffff1673ffffffffffffffffffffffffffffffffffffffff163373ffffffffffffffffffffffffffffffffffffffff161461049157600080fd5b6000600760008473ffffffffffffffffffffffffffffffffffffffff1673ffffffffffffffffffffffffffffffffffffffff1681526020019081526020016000206000015411156104e6576104e582611168565b5b60008111801561053857506000600760008473ffffffffffffffffffffffffffffffffffffffff1673ffffffffffffffffffffffffffffffffffffffff16815260200190815260200160002060000154145b1561054b576105468261140f565b6105ad565b60008114801561059d57506000600760008473ffffffffffffffffffffffffffffffffffffffff1673ffffffffffffffffffffffffffffffffffffffff16815260200190815260200160002060000154115b156105ac576105ab826114be565b5b5b61061681610608600760008673ffffffffffffffffffffffffffffffffffffffff1673ffffffffffffffffffffffffffffffffffffffff1681526020019081526020016000206000015460085461175d90919063ffffffff16565b6117a790919063ffffffff16565b60088190555080600760008473ffffffffffffffffffffffffffffffffffffffff1673ffffffffffffffffffffffffffffffffffffffff168152602001908152602001600020600001819055506106ae600760008473ffffffffffffffffffffffffffffffffffffffff1673ffffffffffffffffffffffffffffffffffffffff16815260200190815260200160002060000154611805565b600760008473ffffffffffffffffffffffffffffffffffffffff1673ffffffffffffffffffffffffffffffffffffffff168152602001908152602001600020600101819055505050565b600080600760008473ffffffffffffffffffffffffffffffffffffffff1673ffffffffffffffffffffffffffffffffffffffff16815260200190815260200160002060000154141561074d576000905061080d565b600061079a600760008573ffffffffffffffffffffffffffffffffffffffff1673ffffffffffffffffffffffffffffffffffffffff16815260200190815260200160002060000154611805565b90506000600760008573ffffffffffffffffffffffffffffffffffffffff1673ffffffffffffffffffffffffffffffffffffffff1681526020019081526020016000206001015490508082116107f55760009250505061080d565b610808818361175d90919063ffffffff16565b925050505b919050565b60008054906101000a900473ffffffffffffffffffffffffffffffffffffffff1673ffffffffffffffffffffffffffffffffffffffff163373ffffffffffffffffffffffffffffffffffffffff161461086a57600080fd5b81600d8190555080600e819055505050565b60085481565b600e5481565b600260009054906101000a900473ffffffffffffffffffffffffffffffffffffffff1681565b60095481565b60008054906101000a900473ffffffffffffffffffffffffffffffffffffffff1673ffffffffffffffffffffffffffffffffffffffff163373ffffffffffffffffffffffffffffffffffffffff161461090c57600080fd5b6000600160009054906101000a900473ffffffffffffffffffffffffffffffffffffffff1673ffffffffffffffffffffffffffffffffffffffff166370a08231306040518263ffffffff1660e01b81526004016109699190611cef565b60206040518083038186803b15801561098157600080fd5b505afa158015610995573d6000803e3d6000fd5b505050506040513d601f19601f820116820180604052508101906109b99190611b3b565b9050600160009054906101000a900473ffffffffffffffffffffffffffffffffffffffff1673ffffffffffffffffffffffffffffffffffffffff1663a9059cbb83836040518363ffffffff1660e01b8152600401610a18929190611d0a565b602060405180830381600087803b158015610a3257600080fd5b505af1158015610a46573d6000803e3d6000fd5b505050506040513d601f19601f82011682018060405250810190610a6a9190611ae9565b505050565b600160009054906101000a900473ffffffffffffffffffffffffffffffffffffffff1681565b60076020528060005260406000206000915090508060000154908060010154908060020154905083565b60008054906101000a900473ffffffffffffffffffffffffffffffffffffffff1673ffffffffffffffffffffffffffffffffffffffff163373ffffffffffffffffffffffffffffffffffffffff1614610b1757600080fd5b6000600160009054906101000a900473ffffffffffffffffffffffffffffffffffffffff1673ffffffffffffffffffffffffffffffffffffffff166370a08231306040518263ffffffff1660e01b8152600401610b749190611cef565b60206040518083038186803b158015610b8c57600080fd5b505afa158015610ba0573d6000803e3d6000fd5b505050506040513d601f19601f82011682018060405250810190610bc49190611b3b565b90506000600267ffffffffffffffff811115610c09577f4e487b7100000000000000000000000000000000000000000000000000000000600052604160045260246000fd5b604051908082528060200260200182016040528015610c375781602001602082028036833780820191505090505b509050600260009054906101000a900473ffffffffffffffffffffffffffffffffffffffff1681600081518110610c97577f4e487b7100000000000000000000000000000000000000000000000000000000600052603260045260246000fd5b602002602001019073ffffffffffffffffffffffffffffffffffffffff16908173ffffffffffffffffffffffffffffffffffffffff1681525050600160009054906101000a900473ffffffffffffffffffffffffffffffffffffffff1681600181518110610d2e577f4e487b7100000000000000000000000000000000000000000000000000000000600052603260045260246000fd5b602002602001019073ffffffffffffffffffffffffffffffffffffffff16908173ffffffffffffffffffffffffffffffffffffffff1681525050600360009054906101000a900473ffffffffffffffffffffffffffffffffffffffff1673ffffffffffffffffffffffffffffffffffffffff1663b6f9de953460008430426040518663ffffffff1660e01b8152600401610dcb9493929190611d69565b6000604051808303818588803b158015610de457600080fd5b505af1158015610df8573d6000803e3d6000fd5b50505050506000610ebc83600160009054906101000a900473ffffffffffffffffffffffffffffffffffffffff1673ffffffffffffffffffffffffffffffffffffffff166370a08231306040518263ffffffff1660e01b8152600401610e5e9190611cef565b60206040518083038186803b158015610e7657600080fd5b505afa158015610e8a573d6000803e3d6000fd5b505050506040513d601f19601f82011682018060405250810190610eae9190611b3b565b61175d90919063ffffffff16565b9050610ed3816009546117a790919063ffffffff16565b600981905550610f16610f05600854610ef784600c5461183790919063ffffffff16565b6118b290919063ffffffff16565b600b546117a790919063ffffffff16565b600b81905550505050565b600b5481565b60008054906101000a900473ffffffffffffffffffffffffffffffffffffffff1681565b600a5481565b610f5a33611168565b565b600360009054906101000a900473ffffffffffffffffffffffffffffffffffffffff1681565b60008054906101000a900473ffffffffffffffffffffffffffffffffffffffff1673ffffffffffffffffffffffffffffffffffffffff163373ffffffffffffffffffffffffffffffffffffffff1614610fda57600080fd5b600060048054905090506000811415610ff3575061115f565b6000805a905060005b848310801561100a57508381105b1561115a5783600f5410611021576000600f819055505b6110906004600f5481548110611060577f4e487b7100000000000000000000000000000000000000000000000000000000600052603260045260246000fd5b9060005260206000200160009054906101000a900473ffffffffffffffffffffffffffffffffffffffff166118fc565b15611105576111046004600f54815481106110d4577f4e487b7100000000000000000000000000000000000000000000000000000000600052603260045260246000fd5b9060005260206000200160009054906101000a900473ffffffffffffffffffffffffffffffffffffffff16611168565b5b61112a61111b5a8461175d90919063ffffffff16565b846117a790919063ffffffff16565b92505a9150600f6000815480929190611142906120a8565b91905055508080611152906120a8565b915050610ffc565b505050505b50565b600d5481565b6000600760008373ffffffffffffffffffffffffffffffffffffffff1673ffffffffffffffffffffffffffffffffffffffff1681526020019081526020016000206000015414156111b85761140c565b60006111c3826106f8565b9050600081111561140a576111e381600a546117a790919063ffffffff16565b600a81905550600160009054906101000a900473ffffffffffffffffffffffffffffffffffffffff1673ffffffffffffffffffffffffffffffffffffffff1663a9059cbb83836040518363ffffffff1660e01b8152600401611246929190611d0a565b602060405180830381600087803b15801561126057600080fd5b505af1158015611274573d6000803e3d6000fd5b505050506040513d601f19601f820116820180604052508101906112989190611ae9565b5042600660008473ffffffffffffffffffffffffffffffffffffffff1673ffffffffffffffffffffffffffffffffffffffff1681526020019081526020016000208190555061133281600760008573ffffffffffffffffffffffffffffffffffffffff1673ffffffffffffffffffffffffffffffffffffffff168152602001908152602001600020600201546117a790919063ffffffff16565b600760008473ffffffffffffffffffffffffffffffffffffffff1673ffffffffffffffffffffffffffffffffffffffff168152602001908152602001600020600201819055506113c3600760008473ffffffffffffffffffffffffffffffffffffffff1673ffffffffffffffffffffffffffffffffffffffff16815260200190815260200160002060000154611805565b600760008473ffffffffffffffffffffffffffffffffffffffff1673ffffffffffffffffffffffffffffffffffffffff168152602001908152602001600020600101819055505b505b50565b600480549050600560008373ffffffffffffffffffffffffffffffffffffffff1673ffffffffffffffffffffffffffffffffffffffff168152602001908152602001600020819055506004819080600181540180825580915050600190039060005260206000200160009091909190916101000a81548173ffffffffffffffffffffffffffffffffffffffff021916908373ffffffffffffffffffffffffffffffffffffffff16021790555050565b600460016004805490506114d29190611f9f565b81548110611509577f4e487b7100000000000000000000000000000000000000000000000000000000600052603260045260246000fd5b9060005260206000200160009054906101000a900473ffffffffffffffffffffffffffffffffffffffff166004600560008473ffffffffffffffffffffffffffffffffffffffff1673ffffffffffffffffffffffffffffffffffffffff16815260200190815260200160002054815481106115ad577f4e487b7100000000000000000000000000000000000000000000000000000000600052603260045260246000fd5b9060005260206000200160006101000a81548173ffffffffffffffffffffffffffffffffffffffff021916908373ffffffffffffffffffffffffffffffffffffffff160217905550600560008273ffffffffffffffffffffffffffffffffffffffff1673ffffffffffffffffffffffffffffffffffffffff16815260200190815260200160002054600560006004600160048054905061164d9190611f9f565b81548110611684577f4e487b7100000000000000000000000000000000000000000000000000000000600052603260045260246000fd5b9060005260206000200160009054906101000a900473ffffffffffffffffffffffffffffffffffffffff1673ffffffffffffffffffffffffffffffffffffffff1673ffffffffffffffffffffffffffffffffffffffff168152602001908152602001600020819055506004805480611725577f4e487b7100000000000000000000000000000000000000000000000000000000600052603160045260246000fd5b6001900381819060005260206000200160006101000a81549073ffffffffffffffffffffffffffffffffffffffff0219169055905550565b600061179f83836040518060400160405280601e81526020017f536166654d6174683a207375627472616374696f6e206f766572666c6f770000815250611969565b905092915050565b60008082846117b69190611ebe565b9050838110156117fb576040517f08c379a00000000000000000000000000000000000000000000000000000000081526004016117f290611dd7565b60405180910390fd5b8091505092915050565b6000611830600c54611822600b548561183790919063ffffffff16565b6118b290919063ffffffff16565b9050919050565b60008083141561184a57600090506118ac565b600082846118589190611f45565b90508284826118679190611f14565b146118a7576040517f08c379a000000000000000000000000000000000000000000000000000000000815260040161189e90611df7565b60405180910390fd5b809150505b92915050565b60006118f483836040518060400160405280601a81526020017f536166654d6174683a206469766973696f6e206279207a65726f0000000000008152506119cd565b905092915050565b600042600d54600660008573ffffffffffffffffffffffffffffffffffffffff1673ffffffffffffffffffffffffffffffffffffffff1681526020019081526020016000205461194c9190611ebe565b1080156119625750600e54611960836106f8565b115b9050919050565b60008383111582906119b1576040517f08c379a00000000000000000000000000000000000000000000000000000000081526004016119a89190611db5565b60405180910390fd5b50600083856119c09190611f9f565b9050809150509392505050565b60008083118290611a14576040517f08c379a0000000000000000000000000000000000000000000000000000000008152600401611a0b9190611db5565b60405180910390fd5b5060008385611a239190611f14565b9050809150509392505050565b600081359050611a3f816121d8565b92915050565b600081519050611a54816121ef565b92915050565b600081359050611a6981612206565b92915050565b600081519050611a7e81612206565b92915050565b600060208284031215611a9657600080fd5b6000611aa484828501611a30565b91505092915050565b60008060408385031215611ac057600080fd5b6000611ace85828601611a30565b9250506020611adf85828601611a5a565b9150509250929050565b600060208284031215611afb57600080fd5b6000611b0984828501611a45565b91505092915050565b600060208284031215611b2457600080fd5b6000611b3284828501611a5a565b91505092915050565b600060208284031215611b4d57600080fd5b6000611b5b84828501611a6f565b91505092915050565b60008060408385031215611b7757600080fd5b6000611b8585828601611a5a565b9250506020611b9685828601611a5a565b9150509250929050565b6000611bac8383611bb8565b60208301905092915050565b611bc181611fd3565b82525050565b611bd081611fd3565b82525050565b6000611be182611e79565b611beb8185611e9c565b9350611bf683611e69565b8060005b83811015611c27578151611c0e8882611ba0565b9750611c1983611e8f565b925050600181019050611bfa565b5085935050505092915050565b611c3d8161201b565b82525050565b611c4c8161203f565b82525050565b611c5b81612063565b82525050565b6000611c6c82611e84565b611c768185611ead565b9350611c86818560208601612075565b611c8f8161214f565b840191505092915050565b6000611ca7601b83611ead565b9150611cb282612160565b602082019050919050565b6000611cca602183611ead565b9150611cd582612189565b604082019050919050565b611ce981612011565b82525050565b6000602082019050611d046000830184611bc7565b92915050565b6000604082019050611d1f6000830185611bc7565b611d2c6020830184611ce0565b9392505050565b6000602082019050611d486000830184611c34565b92915050565b6000602082019050611d636000830184611c43565b92915050565b6000608082019050611d7e6000830187611c52565b8181036020830152611d908186611bd6565b9050611d9f6040830185611bc7565b611dac6060830184611ce0565b95945050505050565b60006020820190508181036000830152611dcf8184611c61565b905092915050565b60006020820190508181036000830152611df081611c9a565b9050919050565b60006020820190508181036000830152611e1081611cbd565b9050919050565b6000602082019050611e2c6000830184611ce0565b92915050565b6000606082019050611e476000830186611ce0565b611e546020830185611ce0565b611e616040830184611ce0565b949350505050565b6000819050602082019050919050565b600081519050919050565b600081519050919050565b6000602082019050919050565b600082825260208201905092915050565b600082825260208201905092915050565b6000611ec982612011565b9150611ed483612011565b9250827fffffffffffffffffffffffffffffffffffffffffffffffffffffffffffffffff03821115611f0957611f086120f1565b5b828201905092915050565b6000611f1f82612011565b9150611f2a83612011565b925082611f3a57611f39612120565b5b828204905092915050565b6000611f5082612011565b9150611f5b83612011565b9250817fffffffffffffffffffffffffffffffffffffffffffffffffffffffffffffffff0483118215151615611f9457611f936120f1565b5b828202905092915050565b6000611faa82612011565b9150611fb583612011565b925082821015611fc857611fc76120f1565b5b828203905092915050565b6000611fde82611ff1565b9050919050565b60008115159050919050565b600073ffffffffffffffffffffffffffffffffffffffff82169050919050565b6000819050919050565b60006120268261202d565b9050919050565b600061203882611ff1565b9050919050565b600061204a82612051565b9050919050565b600061205c82611ff1565b9050919050565b600061206e82612011565b9050919050565b60005b83811015612093578082015181840152602081019050612078565b838111156120a2576000848401525b50505050565b60006120b382612011565b91507fffffffffffffffffffffffffffffffffffffffffffffffffffffffffffffffff8214156120e6576120e56120f1565b5b600182019050919050565b7f4e487b7100000000000000000000000000000000000000000000000000000000600052601160045260246000fd5b7f4e487b7100000000000000000000000000000000000000000000000000000000600052601260045260246000fd5b6000601f19601f8301169050919050565b7f536166654d6174683a206164646974696f6e206f766572666c6f770000000000600082015250565b7f536166654d6174683a206d756c7469706c69636174696f6e206f766572666c6f60008201527f7700000000000000000000000000000000000000000000000000000000000000602082015250565b6121e181611fd3565b81146121ec57600080fd5b50565b6121f881611fe5565b811461220357600080fd5b50565b61220f81612011565b811461221a57600080fd5b5056fea264697066735822122029141f7021073ac3cb777b19db935c83de718182debbcf87c1f8de5440a787d464736f6c63430008040033",
  "linkReferences": {},
  "deployedLinkReferences": {}
}