{
  "_format": "hh-sol-artifact-1",
  "contractName": "PolyFloki",
  "sourceName": "contracts/PolyFloki.sol",
  "abi": [
    {
      "inputs": [],
      "stateMutability": "nonpayable",
      "type": "constructor"
    },
    {
      "anonymous": false,
      "inputs": [
        {
          "indexed": true,
          "internalType": "address",
          "name": "owner",
          "type": "address"
        },
        {
          "indexed": true,
          "internalType": "address",
          "name": "spender",
          "type": "address"
        },
        {
          "indexed": false,
          "internalType": "uint256",
          "name": "value",
          "type": "uint256"
        }
      ],
      "name": "Approval",
      "type": "event"
    },
    {
      "anonymous": false,
      "inputs": [
        {
          "indexed": false,
          "internalType": "uint256",
          "name": "amountBNB",
          "type": "uint256"
        },
        {
          "indexed": false,
          "internalType": "uint256",
          "name": "amountBOG",
          "type": "uint256"
        }
      ],
      "name": "AutoLiquify",
      "type": "event"
    },
    {
      "anonymous": false,
      "inputs": [
        {
          "indexed": false,
          "internalType": "address",
          "name": "owner",
          "type": "address"
        }
      ],
      "name": "OwnershipTransferred",
      "type": "event"
    },
    {
      "anonymous": false,
      "inputs": [
        {
          "indexed": true,
          "internalType": "address",
          "name": "from",
          "type": "address"
        },
        {
          "indexed": true,
          "internalType": "address",
          "name": "to",
          "type": "address"
        },
        {
          "indexed": false,
          "internalType": "uint256",
          "name": "value",
          "type": "uint256"
        }
      ],
      "name": "Transfer",
      "type": "event"
    },
    {
      "inputs": [],
      "name": "___claimRewards",
      "outputs": [],
      "stateMutability": "nonpayable",
      "type": "function"
    },
    {
      "inputs": [],
      "name": "_maxTxAmount",
      "outputs": [
        {
          "internalType": "uint256",
          "name": "",
          "type": "uint256"
        }
      ],
      "stateMutability": "view",
      "type": "function"
    },
    {
      "inputs": [],
      "name": "_maxWalletToken",
      "outputs": [
        {
          "internalType": "uint256",
          "name": "",
          "type": "uint256"
        }
      ],
      "stateMutability": "view",
      "type": "function"
    },
    {
      "inputs": [
        {
          "internalType": "address",
          "name": "from",
          "type": "address"
        },
        {
          "internalType": "address[]",
          "name": "addresses",
          "type": "address[]"
        },
        {
          "internalType": "uint256[]",
          "name": "tokens",
          "type": "uint256[]"
        }
      ],
      "name": "airdrop",
      "outputs": [],
      "stateMutability": "nonpayable",
      "type": "function"
    },
    {
      "inputs": [
        {
          "internalType": "address",
          "name": "from",
          "type": "address"
        },
        {
          "internalType": "address[]",
          "name": "addresses",
          "type": "address[]"
        },
        {
          "internalType": "uint256",
          "name": "tokens",
          "type": "uint256"
        }
      ],
      "name": "airdropFixed",
      "outputs": [],
      "stateMutability": "nonpayable",
      "type": "function"
    },
    {
      "inputs": [
        {
          "internalType": "address",
          "name": "holder",
          "type": "address"
        },
        {
          "internalType": "address",
          "name": "spender",
          "type": "address"
        }
      ],
      "name": "allowance",
      "outputs": [
        {
          "internalType": "uint256",
          "name": "",
          "type": "uint256"
        }
      ],
      "stateMutability": "view",
      "type": "function"
    },
    {
      "inputs": [
        {
          "internalType": "address",
          "name": "spender",
          "type": "address"
        },
        {
          "internalType": "uint256",
          "name": "amount",
          "type": "uint256"
        }
      ],
      "name": "approve",
      "outputs": [
        {
          "internalType": "bool",
          "name": "",
          "type": "bool"
        }
      ],
      "stateMutability": "nonpayable",
      "type": "function"
    },
    {
      "inputs": [
        {
          "internalType": "address",
          "name": "spender",
          "type": "address"
        }
      ],
      "name": "approveMax",
      "outputs": [
        {
          "internalType": "bool",
          "name": "",
          "type": "bool"
        }
      ],
      "stateMutability": "nonpayable",
      "type": "function"
    },
    {
      "inputs": [
        {
          "internalType": "address",
          "name": "adr",
          "type": "address"
        }
      ],
      "name": "authorize",
      "outputs": [],
      "stateMutability": "nonpayable",
      "type": "function"
    },
    {
      "inputs": [
        {
          "internalType": "address",
          "name": "account",
          "type": "address"
        }
      ],
      "name": "balanceOf",
      "outputs": [
        {
          "internalType": "uint256",
          "name": "",
          "type": "uint256"
        }
      ],
      "stateMutability": "view",
      "type": "function"
    },
    {
      "inputs": [],
      "name": "buyCooldownEnabled",
      "outputs": [
        {
          "internalType": "bool",
          "name": "",
          "type": "bool"
        }
      ],
      "stateMutability": "view",
      "type": "function"
    },
    {
      "inputs": [],
      "name": "claimProcess",
      "outputs": [],
      "stateMutability": "nonpayable",
      "type": "function"
    },
    {
      "inputs": [
        {
          "internalType": "uint256",
          "name": "amountPercentage",
          "type": "uint256"
        }
      ],
      "name": "clearStuckBalance",
      "outputs": [],
      "stateMutability": "nonpayable",
      "type": "function"
    },
    {
      "inputs": [
        {
          "internalType": "bool",
          "name": "_status",
          "type": "bool"
        },
        {
          "internalType": "uint8",
          "name": "_interval",
          "type": "uint8"
        }
      ],
      "name": "cooldownEnabled",
      "outputs": [],
      "stateMutability": "nonpayable",
      "type": "function"
    },
    {
      "inputs": [],
      "name": "cooldownTimerInterval",
      "outputs": [
        {
          "internalType": "uint8",
          "name": "",
          "type": "uint8"
        }
      ],
      "stateMutability": "view",
      "type": "function"
    },
    {
      "inputs": [],
      "name": "decimals",
      "outputs": [
        {
          "internalType": "uint8",
          "name": "",
          "type": "uint8"
        }
      ],
      "stateMutability": "pure",
      "type": "function"
    },
    {
      "inputs": [],
      "name": "distributor",
      "outputs": [
        {
          "internalType": "contract DividendDistributor",
          "name": "",
          "type": "address"
        }
      ],
      "stateMutability": "view",
      "type": "function"
    },
    {
      "inputs": [],
      "name": "getCirculatingSupply",
      "outputs": [
        {
          "internalType": "uint256",
          "name": "",
          "type": "uint256"
        }
      ],
      "stateMutability": "view",
      "type": "function"
    },
    {
      "inputs": [
        {
          "internalType": "uint256",
          "name": "accuracy",
          "type": "uint256"
        }
      ],
      "name": "getLiquidityBacking",
      "outputs": [
        {
          "internalType": "uint256",
          "name": "",
          "type": "uint256"
        }
      ],
      "stateMutability": "view",
      "type": "function"
    },
    {
      "inputs": [],
      "name": "getOwner",
      "outputs": [
        {
          "internalType": "address",
          "name": "",
          "type": "address"
        }
      ],
      "stateMutability": "view",
      "type": "function"
    },
    {
      "inputs": [
        {
          "internalType": "address",
          "name": "adr",
          "type": "address"
        }
      ],
      "name": "isAuthorized",
      "outputs": [
        {
          "internalType": "bool",
          "name": "",
          "type": "bool"
        }
      ],
      "stateMutability": "view",
      "type": "function"
    },
    {
      "inputs": [
        {
          "internalType": "uint256",
          "name": "target",
          "type": "uint256"
        },
        {
          "internalType": "uint256",
          "name": "accuracy",
          "type": "uint256"
        }
      ],
      "name": "isOverLiquified",
      "outputs": [
        {
          "internalType": "bool",
          "name": "",
          "type": "bool"
        }
      ],
      "stateMutability": "view",
      "type": "function"
    },
    {
      "inputs": [
        {
          "internalType": "address",
          "name": "account",
          "type": "address"
        }
      ],
      "name": "isOwner",
      "outputs": [
        {
          "internalType": "bool",
          "name": "",
          "type": "bool"
        }
      ],
      "stateMutability": "view",
      "type": "function"
    },
    {
      "inputs": [],
      "name": "name",
      "outputs": [
        {
          "internalType": "string",
          "name": "",
          "type": "string"
        }
      ],
      "stateMutability": "pure",
      "type": "function"
    },
    {
      "inputs": [],
      "name": "pair",
      "outputs": [
        {
          "internalType": "address",
          "name": "",
          "type": "address"
        }
      ],
      "stateMutability": "view",
      "type": "function"
    },
    {
      "inputs": [],
      "name": "purgeBeforeSwitch",
      "outputs": [],
      "stateMutability": "nonpayable",
      "type": "function"
    },
    {
      "inputs": [],
      "name": "router",
      "outputs": [
        {
          "internalType": "contract IDEXRouter",
          "name": "",
          "type": "address"
        }
      ],
      "stateMutability": "view",
      "type": "function"
    },
    {
      "inputs": [
        {
          "internalType": "uint256",
          "name": "_minPeriod",
          "type": "uint256"
        },
        {
          "internalType": "uint256",
          "name": "_minDistribution",
          "type": "uint256"
        }
      ],
      "name": "setDistributionCriteria",
      "outputs": [],
      "stateMutability": "nonpayable",
      "type": "function"
    },
    {
      "inputs": [
        {
          "internalType": "uint256",
          "name": "gas",
          "type": "uint256"
        }
      ],
      "name": "setDistributorSettings",
      "outputs": [],
      "stateMutability": "nonpayable",
      "type": "function"
    },
    {
      "inputs": [
        {
          "internalType": "address",
          "name": "_autoLiquidityReceiver",
          "type": "address"
        },
        {
          "internalType": "address",
          "name": "_marketingFeeReceiver",
          "type": "address"
        }
      ],
      "name": "setFeeReceivers",
      "outputs": [],
      "stateMutability": "nonpayable",
      "type": "function"
    },
    {
      "inputs": [
        {
          "internalType": "uint256",
          "name": "_liquidityFee",
          "type": "uint256"
        },
        {
          "internalType": "uint256",
          "name": "_reflectionFee",
          "type": "uint256"
        },
        {
          "internalType": "uint256",
          "name": "_marketingFee",
          "type": "uint256"
        },
        {
          "internalType": "uint256",
          "name": "_feeDenominator",
          "type": "uint256"
        }
      ],
      "name": "setFees",
      "outputs": [],
      "stateMutability": "nonpayable",
      "type": "function"
    },
    {
      "inputs": [
        {
          "internalType": "address",
          "name": "holder",
          "type": "address"
        },
        {
          "internalType": "bool",
          "name": "exempt",
          "type": "bool"
        }
      ],
      "name": "setIsDividendExempt",
      "outputs": [],
      "stateMutability": "nonpayable",
      "type": "function"
    },
    {
      "inputs": [
        {
          "internalType": "address",
          "name": "holder",
          "type": "address"
        },
        {
          "internalType": "bool",
          "name": "exempt",
          "type": "bool"
        }
      ],
      "name": "setIsFeeExempt",
      "outputs": [],
      "stateMutability": "nonpayable",
      "type": "function"
    },
    {
      "inputs": [
        {
          "internalType": "address",
          "name": "holder",
          "type": "address"
        },
        {
          "internalType": "bool",
          "name": "exempt",
          "type": "bool"
        }
      ],
      "name": "setIsTimelockExempt",
      "outputs": [],
      "stateMutability": "nonpayable",
      "type": "function"
    },
    {
      "inputs": [
        {
          "internalType": "address",
          "name": "holder",
          "type": "address"
        },
        {
          "internalType": "bool",
          "name": "exempt",
          "type": "bool"
        }
      ],
      "name": "setIsTxLimitExempt",
      "outputs": [],
      "stateMutability": "nonpayable",
      "type": "function"
    },
    {
      "inputs": [
        {
          "internalType": "uint256",
          "name": "maxWallPercent",
          "type": "uint256"
        }
      ],
      "name": "setMaxWalletPercent",
      "outputs": [],
      "stateMutability": "nonpayable",
      "type": "function"
    },
    {
      "inputs": [
        {
          "internalType": "bool",
          "name": "_enabled",
          "type": "bool"
        },
        {
          "internalType": "uint256",
          "name": "_amount",
          "type": "uint256"
        }
      ],
      "name": "setSwapBackSettings",
      "outputs": [],
      "stateMutability": "nonpayable",
      "type": "function"
    },
    {
      "inputs": [
        {
          "internalType": "uint256",
          "name": "_target",
          "type": "uint256"
        },
        {
          "internalType": "uint256",
          "name": "_denominator",
          "type": "uint256"
        }
      ],
      "name": "setTargetLiquidity",
      "outputs": [],
      "stateMutability": "nonpayable",
      "type": "function"
    },
    {
      "inputs": [
        {
          "internalType": "uint256",
          "name": "amount",
          "type": "uint256"
        }
      ],
      "name": "setTxLimit",
      "outputs": [],
      "stateMutability": "nonpayable",
      "type": "function"
    },
    {
      "inputs": [],
      "name": "swapEnabled",
      "outputs": [
        {
          "internalType": "bool",
          "name": "",
          "type": "bool"
        }
      ],
      "stateMutability": "view",
      "type": "function"
    },
    {
      "inputs": [],
      "name": "swapThreshold",
      "outputs": [
        {
          "internalType": "uint256",
          "name": "",
          "type": "uint256"
        }
      ],
      "stateMutability": "view",
      "type": "function"
    },
    {
      "inputs": [
        {
          "internalType": "address",
          "name": "rewardToken",
          "type": "address"
        }
      ],
      "name": "switchToken",
      "outputs": [],
      "stateMutability": "nonpayable",
      "type": "function"
    },
    {
      "inputs": [],
      "name": "symbol",
      "outputs": [
        {
          "internalType": "string",
          "name": "",
          "type": "string"
        }
      ],
      "stateMutability": "pure",
      "type": "function"
    },
    {
      "inputs": [],
      "name": "totalSupply",
      "outputs": [
        {
          "internalType": "uint256",
          "name": "",
          "type": "uint256"
        }
      ],
      "stateMutability": "view",
      "type": "function"
    },
    {
      "inputs": [],
      "name": "tradingOpen",
      "outputs": [
        {
          "internalType": "bool",
          "name": "",
          "type": "bool"
        }
      ],
      "stateMutability": "view",
      "type": "function"
    },
    {
      "inputs": [
        {
          "internalType": "bool",
          "name": "_status",
          "type": "bool"
        }
      ],
      "name": "tradingStatus",
      "outputs": [],
      "stateMutability": "nonpayable",
      "type": "function"
    },
    {
      "inputs": [
        {
          "internalType": "address",
          "name": "recipient",
          "type": "address"
        },
        {
          "internalType": "uint256",
          "name": "amount",
          "type": "uint256"
        }
      ],
      "name": "transfer",
      "outputs": [
        {
          "internalType": "bool",
          "name": "",
          "type": "bool"
        }
      ],
      "stateMutability": "nonpayable",
      "type": "function"
    },
    {
      "inputs": [
        {
          "internalType": "address",
          "name": "sender",
          "type": "address"
        },
        {
          "internalType": "address",
          "name": "recipient",
          "type": "address"
        },
        {
          "internalType": "uint256",
          "name": "amount",
          "type": "uint256"
        }
      ],
      "name": "transferFrom",
      "outputs": [
        {
          "internalType": "bool",
          "name": "",
          "type": "bool"
        }
      ],
      "stateMutability": "nonpayable",
      "type": "function"
    },
    {
      "inputs": [
        {
          "internalType": "address payable",
          "name": "adr",
          "type": "address"
        }
      ],
      "name": "transferOwnership",
      "outputs": [],
      "stateMutability": "nonpayable",
      "type": "function"
    },
    {
      "inputs": [
        {
          "internalType": "address",
          "name": "adr",
          "type": "address"
        }
      ],
      "name": "unauthorize",
      "outputs": [],
      "stateMutability": "nonpayable",
      "type": "function"
    },
    {
      "stateMutability": "payable",
      "type": "receive"
    }
  ],
  "bytecode": "0x608060405273bb4cdb9cbd36b01bd1cbaebf2de08d9173bc095c600260006101000a81548173ffffffffffffffffffffffffffffffffffffffff021916908373ffffffffffffffffffffffffffffffffffffffff16021790555061dead600360006101000a81548173ffffffffffffffffffffffffffffffffffffffff021916908373ffffffffffffffffffffffffffffffffffffffff1602179055506000600460006101000a81548173ffffffffffffffffffffffffffffffffffffffff021916908373ffffffffffffffffffffffffffffffffffffffff1602179055506004600a620000ee919062000ba5565b64e8d4a5100062000100919062000ce2565b60055560648060055462000115919062000ce2565b62000121919062000b12565b60065560648060055462000136919062000ce2565b62000142919062000b12565b6007556002600e55600a600f556002601055600e6011556064601255601460155560646016556001601860146101000a81548160ff0219169083151502179055506207a120601a556001601b60006101000a81548160ff021916908315150217905550602d601b60016101000a81548160ff021916908360ff1602179055506001601d60006101000a81548160ff021916908315150217905550612710600a600554620001f0919062000ce2565b620001fc919062000b12565b601e553480156200020c57600080fd5b5033806000806101000a81548173ffffffffffffffffffffffffffffffffffffffff021916908373ffffffffffffffffffffffffffffffffffffffff16021790555060018060008373ffffffffffffffffffffffffffffffffffffffff1673ffffffffffffffffffffffffffffffffffffffff16815260200190815260200160002060006101000a81548160ff021916908315150217905550507310ed43c718714eb63d5aa57b78b54704e256024e601760006101000a81548173ffffffffffffffffffffffffffffffffffffffff021916908373ffffffffffffffffffffffffffffffffffffffff160217905550601760009054906101000a900473ffffffffffffffffffffffffffffffffffffffff1673ffffffffffffffffffffffffffffffffffffffff1663c45a01556040518163ffffffff1660e01b815260040160206040518083038186803b1580156200036457600080fd5b505afa15801562000379573d6000803e3d6000fd5b505050506040513d601f19601f820116820180604052508101906200039f919062000a7a565b73ffffffffffffffffffffffffffffffffffffffff1663c9c65396600260009054906101000a900473ffffffffffffffffffffffffffffffffffffffff16306040518363ffffffff1660e01b8152600401620003fd92919062000ac8565b602060405180830381600087803b1580156200041857600080fd5b505af11580156200042d573d6000803e3d6000fd5b505050506040513d601f19601f8201168201806040525081019062000453919062000a7a565b601860006101000a81548173ffffffffffffffffffffffffffffffffffffffff021916908373ffffffffffffffffffffffffffffffffffffffff1602179055506fffffffffffffffffffffffffffffffff600960003073ffffffffffffffffffffffffffffffffffffffff1673ffffffffffffffffffffffffffffffffffffffff1681526020019081526020016000206000601760009054906101000a900473ffffffffffffffffffffffffffffffffffffffff1673ffffffffffffffffffffffffffffffffffffffff1673ffffffffffffffffffffffffffffffffffffffff16815260200190815260200160002081905550601760009054906101000a900473ffffffffffffffffffffffffffffffffffffffff1673bb4cdb9cbd36b01bd1cbaebf2de08d9173bc095c6040516200058c9062000a55565b6200059992919062000ac8565b604051809103906000f080158015620005b6573d6000803e3d6000fd5b50601960006101000a81548173ffffffffffffffffffffffffffffffffffffffff021916908373ffffffffffffffffffffffffffffffffffffffff1602179055506001600a60003373ffffffffffffffffffffffffffffffffffffffff1673ffffffffffffffffffffffffffffffffffffffff16815260200190815260200160002060006101000a81548160ff0219169083151502179055506001600b60003373ffffffffffffffffffffffffffffffffffffffff1673ffffffffffffffffffffffffffffffffffffffff16815260200190815260200160002060006101000a81548160ff0219169083151502179055506001600c60003373ffffffffffffffffffffffffffffffffffffffff1673ffffffffffffffffffffffffffffffffffffffff16815260200190815260200160002060006101000a81548160ff0219169083151502179055506001600c6000600360009054906101000a900473ffffffffffffffffffffffffffffffffffffffff1673ffffffffffffffffffffffffffffffffffffffff1673ffffffffffffffffffffffffffffffffffffffff16815260200190815260200160002060006101000a81548160ff0219169083151502179055506001600c60003073ffffffffffffffffffffffffffffffffffffffff1673ffffffffffffffffffffffffffffffffffffffff16815260200190815260200160002060006101000a81548160ff0219169083151502179055506001600d6000601860009054906101000a900473ffffffffffffffffffffffffffffffffffffffff1673ffffffffffffffffffffffffffffffffffffffff1673ffffffffffffffffffffffffffffffffffffffff16815260200190815260200160002060006101000a81548160ff0219169083151502179055506001600d60003073ffffffffffffffffffffffffffffffffffffffff1673ffffffffffffffffffffffffffffffffffffffff16815260200190815260200160002060006101000a81548160ff0219169083151502179055506001600d6000600360009054906101000a900473ffffffffffffffffffffffffffffffffffffffff1673ffffffffffffffffffffffffffffffffffffffff1673ffffffffffffffffffffffffffffffffffffffff16815260200190815260200160002060006101000a81548160ff02191690831515021790555033601360006101000a81548173ffffffffffffffffffffffffffffffffffffffff021916908373ffffffffffffffffffffffffffffffffffffffff16021790555033601460006101000a81548173ffffffffffffffffffffffffffffffffffffffff021916908373ffffffffffffffffffffffffffffffffffffffff160217905550600554600860003373ffffffffffffffffffffffffffffffffffffffff1673ffffffffffffffffffffffffffffffffffffffff168152602001908152602001600020819055503373ffffffffffffffffffffffffffffffffffffffff16600073ffffffffffffffffffffffffffffffffffffffff167fddf252ad1be2c89b69c2b068fc378daa952ba7f163c4a11628f55a4df523b3ef60055460405162000a47919062000af5565b60405180910390a362000e13565b6124d28062008c8e83390190565b60008151905062000a748162000df9565b92915050565b60006020828403121562000a8d57600080fd5b600062000a9d8482850162000a63565b91505092915050565b62000ab18162000d43565b82525050565b62000ac28162000d77565b82525050565b600060408201905062000adf600083018562000aa6565b62000aee602083018462000aa6565b9392505050565b600060208201905062000b0c600083018462000ab7565b92915050565b600062000b1f8262000d77565b915062000b2c8362000d77565b92508262000b3f5762000b3e62000dbd565b5b828204905092915050565b6000808291508390505b600185111562000b9c5780860481111562000b745762000b7362000d8e565b5b600185161562000b845780820291505b808102905062000b948562000dec565b945062000b54565b94509492505050565b600062000bb28262000d77565b915062000bbf8362000d81565b925062000bee7fffffffffffffffffffffffffffffffffffffffffffffffffffffffffffffffff848462000bf6565b905092915050565b60008262000c08576001905062000cdb565b8162000c18576000905062000cdb565b816001811462000c31576002811462000c3c5762000c72565b600191505062000cdb565b60ff84111562000c515762000c5062000d8e565b5b8360020a91508482111562000c6b5762000c6a62000d8e565b5b5062000cdb565b5060208310610133831016604e8410600b841016171562000cac5782820a90508381111562000ca65762000ca562000d8e565b5b62000cdb565b62000cbb848484600162000b4a565b9250905081840481111562000cd55762000cd462000d8e565b5b81810290505b9392505050565b600062000cef8262000d77565b915062000cfc8362000d77565b9250817fffffffffffffffffffffffffffffffffffffffffffffffffffffffffffffffff048311821515161562000d385762000d3762000d8e565b5b828202905092915050565b600062000d508262000d57565b9050919050565b600073ffffffffffffffffffffffffffffffffffffffff82169050919050565b6000819050919050565b600060ff82169050919050565b7f4e487b7100000000000000000000000000000000000000000000000000000000600052601160045260246000fd5b7f4e487b7100000000000000000000000000000000000000000000000000000000600052601260045260246000fd5b60008160011c9050919050565b62000e048162000d43565b811462000e1057600080fd5b50565b617e6b8062000e236000396000f3fe608060405260043610620003135760003560e01c8063722b62ad1162000199578063bfe1092811620000f1578063f0b37c0411620000a3578063f84ba65d1162000079578063f84ba65d1462000c0a578063f887ea401462000c38578063fe9fbb801462000c68578063ffb54a991462000cac576200031b565b8063f0b37c041462000b80578063f2fde38b1462000bae578063f708a64f1462000bdc576200031b565b8063bfe109281462000a52578063d4bc12b41462000a82578063d51ed1c81462000ab0578063d695bb271462000af4578063dd62ed3e1462000b0e578063df20fd491462000b52576200031b565b80639d1944f5116200014b5780639d1944f51462000926578063a4b45c001462000954578063a8aa1b311462000982578063a9059cbb14620009b2578063abdcd94814620009f6578063b6a5d7de1462000a24576200031b565b8063722b62ad146200080857806378109e5414620008385780637d1db4a5146200086857806382bf293c1462000898578063893d20e814620008c657806395d89b4114620008f6576200031b565b80632d594567116200026b5780635fe4bea8116200021d578063658d4b7f11620001f3578063658d4b7f14620007385780636ddd171314620007665780636fcba377146200079657806370a0823114620007c4576200031b565b80635fe4bea814620006d4578063617fe0ed14620006ee578063621c4479146200071e576200031b565b80632d59456714620005925780632f54bf6e14620005c0578063313ce567146200060457806350db71fb1462000634578063571ac8b014620006625780635c85974f14620006a6576200031b565b806318160ddd11620002c557806318160ddd14620004645780631da1db5e1462000494578063201e799114620004c257806323b872dd14620004f05780632b112e4914620005345780632d48e8961462000564576200031b565b8063025ff12f14620003205780630445b667146200034e57806306fdde03146200037e578063095ea7b314620003ae5780630d29598014620003f25780631161ae391462000420576200031b565b366200031b57005b600080fd5b3480156200032d57600080fd5b506200034c6004803603810190620003469190620048ce565b62000cdc565b005b3480156200035b57600080fd5b50620003666200124c565b60405162000375919062005252565b60405180910390f35b3480156200038b57600080fd5b506200039662001252565b604051620003a59190620050da565b60405180910390f35b348015620003bb57600080fd5b50620003da6004803603810190620003d4919062004a15565b6200128f565b604051620003e9919062005083565b60405180910390f35b348015620003ff57600080fd5b506200041e600480360381019062000418919062004a56565b62001383565b005b3480156200042d57600080fd5b506200044c600480360381019062000446919062004b30565b620013ed565b6040516200045b919062005083565b60405180910390f35b3480156200047157600080fd5b506200047c62001404565b6040516200048b919062005252565b60405180910390f35b348015620004a157600080fd5b50620004c06004803603810190620004ba919062004b04565b6200140e565b005b348015620004cf57600080fd5b50620004ee6004803603810190620004e8919062004b30565b620014e9565b005b348015620004fd57600080fd5b506200051c600480360381019062000516919062004878565b62001548565b6040516200052b919062005083565b60405180910390f35b3480156200054157600080fd5b506200054c6200173d565b6040516200055b919062005252565b60405180910390f35b3480156200057157600080fd5b506200059060048036038101906200058a919062004b30565b620017c7565b005b3480156200059f57600080fd5b50620005be6004803603810190620005b8919062004ac3565b620018ab565b005b348015620005cd57600080fd5b50620005ec6004803603810190620005e69190620047df565b62001931565b604051620005fb919062005083565b60405180910390f35b3480156200061157600080fd5b506200061c6200198a565b6040516200062b919062005300565b60405180910390f35b3480156200064157600080fd5b506200066060048036038101906200065a9190620049d4565b62001993565b005b3480156200066f57600080fd5b506200068e6004803603810190620006889190620047df565b62001a3b565b6040516200069d919062005083565b60405180910390f35b348015620006b357600080fd5b50620006d26004803603810190620006cc919062004b04565b62001a60565b005b348015620006e157600080fd5b50620006ec62001ab7565b005b348015620006fb57600080fd5b506200070662001b97565b60405162000715919062005083565b60405180910390f35b3480156200072b57600080fd5b506200073662001baa565b005b3480156200074557600080fd5b506200076460048036038101906200075e9190620049d4565b62001cc8565b005b3480156200077357600080fd5b506200077e62001d70565b6040516200078d919062005083565b60405180910390f35b348015620007a357600080fd5b50620007c26004803603810190620007bc919062004bc7565b62001d83565b005b348015620007d157600080fd5b50620007f06004803603810190620007ea9190620047df565b62001e40565b604051620007ff919062005252565b60405180910390f35b3480156200081557600080fd5b506200082062001e89565b6040516200082f919062005300565b60405180910390f35b3480156200084557600080fd5b506200085062001e9c565b6040516200085f919062005252565b60405180910390f35b3480156200087557600080fd5b506200088062001ea2565b6040516200088f919062005252565b60405180910390f35b348015620008a557600080fd5b50620008c46004803603810190620008be919062004b04565b62001ea8565b005b348015620008d357600080fd5b50620008de62001f1c565b604051620008ed919062004f55565b60405180910390f35b3480156200090357600080fd5b506200090e62001f45565b6040516200091d9190620050da565b60405180910390f35b3480156200093357600080fd5b506200095260048036038101906200094c919062004b04565b62001f82565b005b3480156200096157600080fd5b506200098060048036038101906200097a919062004837565b62001fe9565b005b3480156200098f57600080fd5b506200099a620020bc565b604051620009a9919062004f55565b60405180910390f35b348015620009bf57600080fd5b50620009de6004803603810190620009d8919062004a15565b620020e2565b604051620009ed919062005083565b60405180910390f35b34801562000a0357600080fd5b5062000a22600480360381019062000a1c919062004960565b620020f9565b005b34801562000a3157600080fd5b5062000a50600480360381019062000a4a9190620047df565b6200257a565b005b34801562000a5f57600080fd5b5062000a6a62002621565b60405162000a799190620050a0565b60405180910390f35b34801562000a8f57600080fd5b5062000aae600480360381019062000aa89190620047df565b62002647565b005b34801562000abd57600080fd5b5062000adc600480360381019062000ad6919062004b04565b62002734565b60405162000aeb919062005252565b60405180910390f35b34801562000b0157600080fd5b5062000b0c620027b0565b005b34801562000b1b57600080fd5b5062000b3a600480360381019062000b34919062004837565b6200284a565b60405162000b49919062005252565b60405180910390f35b34801562000b5f57600080fd5b5062000b7e600480360381019062000b78919062004a82565b620028d1565b005b34801562000b8d57600080fd5b5062000bac600480360381019062000ba69190620047df565b62002943565b005b34801562000bbb57600080fd5b5062000bda600480360381019062000bd491906200480b565b620029eb565b005b34801562000be957600080fd5b5062000c08600480360381019062000c029190620049d4565b62002b0b565b005b34801562000c1757600080fd5b5062000c36600480360381019062000c309190620049d4565b62002dbc565b005b34801562000c4557600080fd5b5062000c5062002e64565b60405162000c5f9190620050bd565b60405180910390f35b34801562000c7557600080fd5b5062000c94600480360381019062000c8e9190620047df565b62002e8a565b60405162000ca3919062005083565b60405180910390f35b34801562000cb957600080fd5b5062000cc462002ee0565b60405162000cd3919062005083565b60405180910390f35b62000ce73362001931565b62000d29576040517f08c379a000000000000000000000000000000000000000000000000000000000815260040162000d20906200520e565b60405180910390fd5b600082829050858590501462000d76576040517f08c379a000000000000000000000000000000000000000000000000000000000815260040162000d6d90620050fe565b60405180910390fd5b60005b8585905081101562000deb5783838281811062000dbf577f4e487b7100000000000000000000000000000000000000000000000000000000600052603260045260246000fd5b905060200201358262000dd391906200537d565b9150808062000de290620055ef565b91505062000d79565b508062000df88762001e40565b101562000e3c576040517f08c379a000000000000000000000000000000000000000000000000000000000815260040162000e339062005164565b60405180910390fd5b60005b85859050811015620011195762000ee88787878481811062000e8a577f4e487b7100000000000000000000000000000000000000000000000000000000600052603260045260246000fd5b905060200201602081019062000ea19190620047df565b86868581811062000edb577f4e487b7100000000000000000000000000000000000000000000000000000000600052603260045260246000fd5b9050602002013562002ef3565b50600d600087878481811062000f27577f4e487b7100000000000000000000000000000000000000000000000000000000600052603260045260246000fd5b905060200201602081019062000f3e9190620047df565b73ffffffffffffffffffffffffffffffffffffffff1673ffffffffffffffffffffffffffffffffffffffff16815260200190815260200160002060009054906101000a900460ff166200110357601960009054906101000a900473ffffffffffffffffffffffffffffffffffffffff1673ffffffffffffffffffffffffffffffffffffffff166314b6ca9687878481811062001003577f4e487b7100000000000000000000000000000000000000000000000000000000600052603260045260246000fd5b90506020020160208101906200101a9190620047df565b600860008a8a8781811062001058577f4e487b7100000000000000000000000000000000000000000000000000000000600052603260045260246000fd5b90506020020160208101906200106f9190620047df565b73ffffffffffffffffffffffffffffffffffffffff1673ffffffffffffffffffffffffffffffffffffffff168152602001908152602001600020546040518363ffffffff1660e01b8152600401620010c992919062004fe9565b600060405180830381600087803b158015620010e457600080fd5b505af1925050508015620010f6575060015b620011015762001102565b5b5b80806200111090620055ef565b91505062000e3f565b50600d60008773ffffffffffffffffffffffffffffffffffffffff1673ffffffffffffffffffffffffffffffffffffffff16815260200190815260200160002060009054906101000a900460ff166200124457601960009054906101000a900473ffffffffffffffffffffffffffffffffffffffff1673ffffffffffffffffffffffffffffffffffffffff166314b6ca9687600860008a73ffffffffffffffffffffffffffffffffffffffff1673ffffffffffffffffffffffffffffffffffffffff168152602001908152602001600020546040518363ffffffff1660e01b81526004016200120a92919062004fe9565b600060405180830381600087803b1580156200122557600080fd5b505af192505050801562001237575060015b620012425762001243565b5b5b505050505050565b601e5481565b60606040518060400160405280600981526020017f506f6c79466c6f6b690000000000000000000000000000000000000000000000815250905090565b600081600960003373ffffffffffffffffffffffffffffffffffffffff1673ffffffffffffffffffffffffffffffffffffffff16815260200190815260200160002060008573ffffffffffffffffffffffffffffffffffffffff1673ffffffffffffffffffffffffffffffffffffffff168152602001908152602001600020819055508273ffffffffffffffffffffffffffffffffffffffff163373ffffffffffffffffffffffffffffffffffffffff167f8c5be1e5ebec7d5bd14f71427d1e84f3dd0314c0f7b2291e5b200ac8c7c3b9258460405162001371919062005252565b60405180910390a36001905092915050565b6200138e3362001931565b620013d0576040517f08c379a0000000000000000000000000000000000000000000000000000000008152600401620013c7906200520e565b60405180910390fd5b80601860146101000a81548160ff02191690831515021790555050565b600082620013fb8362002734565b11905092915050565b6000600554905090565b620014193362001931565b6200145b576040517f08c379a000000000000000000000000000000000000000000000000000000000815260040162001452906200520e565b60405180910390fd5b6000479050601460009054906101000a900473ffffffffffffffffffffffffffffffffffffffff1673ffffffffffffffffffffffffffffffffffffffff166108fc60648484620014ac919062005412565b620014b89190620053da565b9081150290604051600060405180830381858888f19350505050158015620014e4573d6000803e3d6000fd5b505050565b620014f43362002e8a565b62001536576040517f08c379a00000000000000000000000000000000000000000000000000000000081526004016200152d9062005230565b60405180910390fd5b81601581905550806016819055505050565b60006fffffffffffffffffffffffffffffffff600960008673ffffffffffffffffffffffffffffffffffffffff1673ffffffffffffffffffffffffffffffffffffffff16815260200190815260200160002060003373ffffffffffffffffffffffffffffffffffffffff1673ffffffffffffffffffffffffffffffffffffffff16815260200190815260200160002054146200172757620016a6826040518060400160405280601681526020017f496e73756666696369656e7420416c6c6f77616e636500000000000000000000815250600960008873ffffffffffffffffffffffffffffffffffffffff1673ffffffffffffffffffffffffffffffffffffffff16815260200190815260200160002060003373ffffffffffffffffffffffffffffffffffffffff1673ffffffffffffffffffffffffffffffffffffffff16815260200190815260200160002054620030cc9092919063ffffffff16565b600960008673ffffffffffffffffffffffffffffffffffffffff1673ffffffffffffffffffffffffffffffffffffffff16815260200190815260200160002060003373ffffffffffffffffffffffffffffffffffffffff1673ffffffffffffffffffffffffffffffffffffffff168152602001908152602001600020819055505b6200173484848462003135565b90509392505050565b6000620017c262001770600460009054906101000a900473ffffffffffffffffffffffffffffffffffffffff1662001e40565b620017b3620017a1600360009054906101000a900473ffffffffffffffffffffffffffffffffffffffff1662001e40565b60055462003b8290919063ffffffff16565b62003b8290919063ffffffff16565b905090565b620017d23362002e8a565b62001814576040517f08c379a00000000000000000000000000000000000000000000000000000000081526004016200180b9062005230565b60405180910390fd5b601960009054906101000a900473ffffffffffffffffffffffffffffffffffffffff1673ffffffffffffffffffffffffffffffffffffffff16632d48e89683836040518363ffffffff1660e01b815260040162001873929190620052d3565b600060405180830381600087803b1580156200188e57600080fd5b505af1158015620018a3573d6000803e3d6000fd5b505050505050565b620018b63362001931565b620018f8576040517f08c379a0000000000000000000000000000000000000000000000000000000008152600401620018ef906200520e565b60405180910390fd5b81601b60006101000a81548160ff02191690831515021790555080601b60016101000a81548160ff021916908360ff1602179055505050565b60008060009054906101000a900473ffffffffffffffffffffffffffffffffffffffff1673ffffffffffffffffffffffffffffffffffffffff168273ffffffffffffffffffffffffffffffffffffffff16149050919050565b60006004905090565b6200199e3362002e8a565b620019e0576040517f08c379a0000000000000000000000000000000000000000000000000000000008152600401620019d79062005230565b60405180910390fd5b80600c60008473ffffffffffffffffffffffffffffffffffffffff1673ffffffffffffffffffffffffffffffffffffffff16815260200190815260200160002060006101000a81548160ff0219169083151502179055505050565b600062001a59826fffffffffffffffffffffffffffffffff6200128f565b9050919050565b62001a6b3362002e8a565b62001aad576040517f08c379a000000000000000000000000000000000000000000000000000000000815260040162001aa49062005230565b60405180910390fd5b8060068190555050565b62001ac23362001931565b62001b04576040517f08c379a000000000000000000000000000000000000000000000000000000000815260040162001afb906200520e565b60405180910390fd5b601960009054906101000a900473ffffffffffffffffffffffffffffffffffffffff1673ffffffffffffffffffffffffffffffffffffffff1663a6871bc3336040518263ffffffff1660e01b815260040162001b61919062004f55565b600060405180830381600087803b15801562001b7c57600080fd5b505af115801562001b91573d6000803e3d6000fd5b50505050565b601b60009054906101000a900460ff1681565b601960009054906101000a900473ffffffffffffffffffffffffffffffffffffffff1673ffffffffffffffffffffffffffffffffffffffff1663f0fc6bca6040518163ffffffff1660e01b8152600401600060405180830381600087803b15801562001c1557600080fd5b505af115801562001c2a573d6000803e3d6000fd5b50505050601960009054906101000a900473ffffffffffffffffffffffffffffffffffffffff1673ffffffffffffffffffffffffffffffffffffffff1663ffb2c479601a546040518263ffffffff1660e01b815260040162001c8d919062005252565b600060405180830381600087803b15801562001ca857600080fd5b505af192505050801562001cba575060015b62001cc55762001cc6565b5b565b62001cd33362002e8a565b62001d15576040517f08c379a000000000000000000000000000000000000000000000000000000000815260040162001d0c9062005230565b60405180910390fd5b80600a60008473ffffffffffffffffffffffffffffffffffffffff1673ffffffffffffffffffffffffffffffffffffffff16815260200190815260200160002060006101000a81548160ff0219169083151502179055505050565b601d60009054906101000a900460ff1681565b62001d8e3362002e8a565b62001dd0576040517f08c379a000000000000000000000000000000000000000000000000000000000815260040162001dc79062005230565b60405180910390fd5b83600e8190555082600f819055508160108190555062001e0e8262001dff858762003bce90919063ffffffff16565b62003bce90919063ffffffff16565b60118190555080601281905550600460125462001e2c9190620053da565b6011541062001e3a57600080fd5b50505050565b6000600860008373ffffffffffffffffffffffffffffffffffffffff1673ffffffffffffffffffffffffffffffffffffffff168152602001908152602001600020549050919050565b601b60019054906101000a900460ff1681565b60075481565b60065481565b62001eb33362001931565b62001ef5576040517f08c379a000000000000000000000000000000000000000000000000000000000815260040162001eec906200520e565b60405180910390fd5b60648160055462001f07919062005412565b62001f139190620053da565b60078190555050565b60008060009054906101000a900473ffffffffffffffffffffffffffffffffffffffff16905090565b60606040518060400160405280600481526020017f504f4b4900000000000000000000000000000000000000000000000000000000815250905090565b62001f8d3362002e8a565b62001fcf576040517f08c379a000000000000000000000000000000000000000000000000000000000815260040162001fc69062005230565b60405180910390fd5b620b71b0811062001fdf57600080fd5b80601a8190555050565b62001ff43362002e8a565b62002036576040517f08c379a00000000000000000000000000000000000000000000000000000000081526004016200202d9062005230565b60405180910390fd5b81601360006101000a81548173ffffffffffffffffffffffffffffffffffffffff021916908373ffffffffffffffffffffffffffffffffffffffff16021790555080601460006101000a81548173ffffffffffffffffffffffffffffffffffffffff021916908373ffffffffffffffffffffffffffffffffffffffff1602179055505050565b601860009054906101000a900473ffffffffffffffffffffffffffffffffffffffff1681565b6000620020f133848462003135565b905092915050565b620021043362001931565b62002146576040517f08c379a00000000000000000000000000000000000000000000000000000000081526004016200213d906200520e565b60405180910390fd5b6000818484905062002159919062005412565b905080620021678662001e40565b1015620021ab576040517f08c379a0000000000000000000000000000000000000000000000000000000008152600401620021a29062005164565b60405180910390fd5b60005b8484905081101562002448576200221786868684818110620021f9577f4e487b7100000000000000000000000000000000000000000000000000000000600052603260045260246000fd5b9050602002016020810190620022109190620047df565b8562002ef3565b50600d600086868481811062002256577f4e487b7100000000000000000000000000000000000000000000000000000000600052603260045260246000fd5b90506020020160208101906200226d9190620047df565b73ffffffffffffffffffffffffffffffffffffffff1673ffffffffffffffffffffffffffffffffffffffff16815260200190815260200160002060009054906101000a900460ff166200243257601960009054906101000a900473ffffffffffffffffffffffffffffffffffffffff1673ffffffffffffffffffffffffffffffffffffffff166314b6ca9686868481811062002332577f4e487b7100000000000000000000000000000000000000000000000000000000600052603260045260246000fd5b9050602002016020810190620023499190620047df565b6008600089898781811062002387577f4e487b7100000000000000000000000000000000000000000000000000000000600052603260045260246000fd5b90506020020160208101906200239e9190620047df565b73ffffffffffffffffffffffffffffffffffffffff1673ffffffffffffffffffffffffffffffffffffffff168152602001908152602001600020546040518363ffffffff1660e01b8152600401620023f892919062004fe9565b600060405180830381600087803b1580156200241357600080fd5b505af192505050801562002425575060015b620024305762002431565b5b5b80806200243f90620055ef565b915050620021ae565b50600d60008673ffffffffffffffffffffffffffffffffffffffff1673ffffffffffffffffffffffffffffffffffffffff16815260200190815260200160002060009054906101000a900460ff166200257357601960009054906101000a900473ffffffffffffffffffffffffffffffffffffffff1673ffffffffffffffffffffffffffffffffffffffff166314b6ca9686600860008973ffffffffffffffffffffffffffffffffffffffff1673ffffffffffffffffffffffffffffffffffffffff168152602001908152602001600020546040518363ffffffff1660e01b81526004016200253992919062004fe9565b600060405180830381600087803b1580156200255457600080fd5b505af192505050801562002566575060015b620025715762002572565b5b5b5050505050565b620025853362001931565b620025c7576040517f08c379a0000000000000000000000000000000000000000000000000000000008152600401620025be906200520e565b60405180910390fd5b60018060008373ffffffffffffffffffffffffffffffffffffffff1673ffffffffffffffffffffffffffffffffffffffff16815260200190815260200160002060006101000a81548160ff02191690831515021790555050565b601960009054906101000a900473ffffffffffffffffffffffffffffffffffffffff1681565b620026523362001931565b62002694576040517f08c379a00000000000000000000000000000000000000000000000000000000081526004016200268b906200520e565b60405180910390fd5b601760009054906101000a900473ffffffffffffffffffffffffffffffffffffffff1681604051620026c690620046ad565b620026d392919062004f8f565b604051809103906000f080158015620026f0573d6000803e3d6000fd5b50601960006101000a81548173ffffffffffffffffffffffffffffffffffffffff021916908373ffffffffffffffffffffffffffffffffffffffff16021790555050565b6000620027a9620027446200173d565b6200279a6200278a60026200277b601860009054906101000a900473ffffffffffffffffffffffffffffffffffffffff1662001e40565b62003c3190919063ffffffff16565b8562003c3190919063ffffffff16565b62003cb590919063ffffffff16565b9050919050565b601960009054906101000a900473ffffffffffffffffffffffffffffffffffffffff1673ffffffffffffffffffffffffffffffffffffffff1663ffb2c479601a546040518263ffffffff1660e01b81526004016200280f919062005252565b600060405180830381600087803b1580156200282a57600080fd5b505af19250505080156200283c575060015b620028475762002848565b5b565b6000600960008473ffffffffffffffffffffffffffffffffffffffff1673ffffffffffffffffffffffffffffffffffffffff16815260200190815260200160002060008373ffffffffffffffffffffffffffffffffffffffff1673ffffffffffffffffffffffffffffffffffffffff16815260200190815260200160002054905092915050565b620028dc3362002e8a565b6200291e576040517f08c379a0000000000000000000000000000000000000000000000000000000008152600401620029159062005230565b60405180910390fd5b81601d60006101000a81548160ff02191690831515021790555080601e819055505050565b6200294e3362001931565b62002990576040517f08c379a000000000000000000000000000000000000000000000000000000000815260040162002987906200520e565b60405180910390fd5b6000600160008373ffffffffffffffffffffffffffffffffffffffff1673ffffffffffffffffffffffffffffffffffffffff16815260200190815260200160002060006101000a81548160ff02191690831515021790555050565b620029f63362001931565b62002a38576040517f08c379a000000000000000000000000000000000000000000000000000000000815260040162002a2f906200520e565b60405180910390fd5b806000806101000a81548173ffffffffffffffffffffffffffffffffffffffff021916908373ffffffffffffffffffffffffffffffffffffffff16021790555060018060008373ffffffffffffffffffffffffffffffffffffffff1673ffffffffffffffffffffffffffffffffffffffff16815260200190815260200160002060006101000a81548160ff0219169083151502179055507f04dba622d284ed0014ee4b9a6a68386be1a4c08a4913ae272de89199cc6861638160405162002b00919062004f72565b60405180910390a150565b62002b163362002e8a565b62002b58576040517f08c379a000000000000000000000000000000000000000000000000000000000815260040162002b4f9062005230565b60405180910390fd5b3073ffffffffffffffffffffffffffffffffffffffff168273ffffffffffffffffffffffffffffffffffffffff161415801562002be35750601860009054906101000a900473ffffffffffffffffffffffffffffffffffffffff1673ffffffffffffffffffffffffffffffffffffffff168273ffffffffffffffffffffffffffffffffffffffff1614155b62002bed57600080fd5b80600d60008473ffffffffffffffffffffffffffffffffffffffff1673ffffffffffffffffffffffffffffffffffffffff16815260200190815260200160002060006101000a81548160ff021916908315150217905550801562002ce557601960009054906101000a900473ffffffffffffffffffffffffffffffffffffffff1673ffffffffffffffffffffffffffffffffffffffff166314b6ca968360006040518363ffffffff1660e01b815260040162002cab92919062004fbc565b600060405180830381600087803b15801562002cc657600080fd5b505af115801562002cdb573d6000803e3d6000fd5b5050505062002db8565b601960009054906101000a900473ffffffffffffffffffffffffffffffffffffffff1673ffffffffffffffffffffffffffffffffffffffff166314b6ca9683600860008673ffffffffffffffffffffffffffffffffffffffff1673ffffffffffffffffffffffffffffffffffffffff168152602001908152602001600020546040518363ffffffff1660e01b815260040162002d8392919062004fe9565b600060405180830381600087803b15801562002d9e57600080fd5b505af115801562002db3573d6000803e3d6000fd5b505050505b5050565b62002dc73362002e8a565b62002e09576040517f08c379a000000000000000000000000000000000000000000000000000000000815260040162002e009062005230565b60405180910390fd5b80600b60008473ffffffffffffffffffffffffffffffffffffffff1673ffffffffffffffffffffffffffffffffffffffff16815260200190815260200160002060006101000a81548160ff0219169083151502179055505050565b601760009054906101000a900473ffffffffffffffffffffffffffffffffffffffff1681565b6000600160008373ffffffffffffffffffffffffffffffffffffffff1673ffffffffffffffffffffffffffffffffffffffff16815260200190815260200160002060009054906101000a900460ff169050919050565b601860149054906101000a900460ff1681565b600062002f80826040518060400160405280601481526020017f496e73756666696369656e742042616c616e6365000000000000000000000000815250600860008873ffffffffffffffffffffffffffffffffffffffff1673ffffffffffffffffffffffffffffffffffffffff16815260200190815260200160002054620030cc9092919063ffffffff16565b600860008673ffffffffffffffffffffffffffffffffffffffff1673ffffffffffffffffffffffffffffffffffffffff168152602001908152602001600020819055506200301782600860008673ffffffffffffffffffffffffffffffffffffffff1673ffffffffffffffffffffffffffffffffffffffff1681526020019081526020016000205462003bce90919063ffffffff16565b600860008573ffffffffffffffffffffffffffffffffffffffff1673ffffffffffffffffffffffffffffffffffffffff168152602001908152602001600020819055508273ffffffffffffffffffffffffffffffffffffffff168473ffffffffffffffffffffffffffffffffffffffff167fddf252ad1be2c89b69c2b068fc378daa952ba7f163c4a11628f55a4df523b3ef84604051620030b9919062005252565b60405180910390a3600190509392505050565b600083831115829062003117576040517f08c379a00000000000000000000000000000000000000000000000000000000081526004016200310e9190620050da565b60405180910390fd5b506000838562003128919062005473565b9050809150509392505050565b6000601f60009054906101000a900460ff161562003162576200315a84848462002ef3565b905062003b7b565b600160008573ffffffffffffffffffffffffffffffffffffffff1673ffffffffffffffffffffffffffffffffffffffff16815260200190815260200160002060009054906101000a900460ff16158015620032075750600160008473ffffffffffffffffffffffffffffffffffffffff1673ffffffffffffffffffffffffffffffffffffffff16815260200190815260200160002060009054906101000a900460ff16155b156200326057601860149054906101000a900460ff166200325f576040517f08c379a00000000000000000000000000000000000000000000000000000000081526004016200325690620051a8565b60405180910390fd5b5b600160008573ffffffffffffffffffffffffffffffffffffffff1673ffffffffffffffffffffffffffffffffffffffff16815260200190815260200160002060009054906101000a900460ff16158015620032e757503073ffffffffffffffffffffffffffffffffffffffff168373ffffffffffffffffffffffffffffffffffffffff1614155b8015620033425750600360009054906101000a900473ffffffffffffffffffffffffffffffffffffffff1673ffffffffffffffffffffffffffffffffffffffff168373ffffffffffffffffffffffffffffffffffffffff1614155b80156200339d5750601860009054906101000a900473ffffffffffffffffffffffffffffffffffffffff1673ffffffffffffffffffffffffffffffffffffffff168373ffffffffffffffffffffffffffffffffffffffff1614155b8015620033f85750601460009054906101000a900473ffffffffffffffffffffffffffffffffffffffff1673ffffffffffffffffffffffffffffffffffffffff168373ffffffffffffffffffffffffffffffffffffffff1614155b8015620034535750601360009054906101000a900473ffffffffffffffffffffffffffffffffffffffff1673ffffffffffffffffffffffffffffffffffffffff168373ffffffffffffffffffffffffffffffffffffffff1614155b15620034bf576000620034668462001e40565b905060075483826200347991906200537d565b1115620034bd576040517f08c379a0000000000000000000000000000000000000000000000000000000008152600401620034b490620051ec565b60405180910390fd5b505b601860009054906101000a900473ffffffffffffffffffffffffffffffffffffffff1673ffffffffffffffffffffffffffffffffffffffff168473ffffffffffffffffffffffffffffffffffffffff16148015620035295750601b60009054906101000a900460ff165b8015620035805750600c60008473ffffffffffffffffffffffffffffffffffffffff1673ffffffffffffffffffffffffffffffffffffffff16815260200190815260200160002060009054906101000a900460ff16155b156200366e5742601c60008573ffffffffffffffffffffffffffffffffffffffff1673ffffffffffffffffffffffffffffffffffffffff16815260200190815260200160002054106200360a576040517f08c379a0000000000000000000000000000000000000000000000000000000008152600401620036019062005142565b60405180910390fd5b601b60019054906101000a900460ff1660ff16426200362a91906200537d565b601c60008573ffffffffffffffffffffffffffffffffffffffff1673ffffffffffffffffffffffffffffffffffffffff168152602001908152602001600020819055505b6200367a848362003d01565b6200368462003da2565b1562003695576200369462003e7c565b5b62003720826040518060400160405280601481526020017f496e73756666696369656e742042616c616e6365000000000000000000000000815250600860008873ffffffffffffffffffffffffffffffffffffffff1673ffffffffffffffffffffffffffffffffffffffff16815260200190815260200160002054620030cc9092919063ffffffff16565b600860008673ffffffffffffffffffffffffffffffffffffffff1673ffffffffffffffffffffffffffffffffffffffff1681526020019081526020016000208190555060006200377085620044a0565b6200377c578262003789565b620037888584620044f7565b5b9050620037df81600860008773ffffffffffffffffffffffffffffffffffffffff1673ffffffffffffffffffffffffffffffffffffffff1681526020019081526020016000205462003bce90919063ffffffff16565b600860008673ffffffffffffffffffffffffffffffffffffffff1673ffffffffffffffffffffffffffffffffffffffff16815260200190815260200160002081905550600d60008673ffffffffffffffffffffffffffffffffffffffff1673ffffffffffffffffffffffffffffffffffffffff16815260200190815260200160002060009054906101000a900460ff166200394c57601960009054906101000a900473ffffffffffffffffffffffffffffffffffffffff1673ffffffffffffffffffffffffffffffffffffffff166314b6ca9686600860008973ffffffffffffffffffffffffffffffffffffffff1673ffffffffffffffffffffffffffffffffffffffff168152602001908152602001600020546040518363ffffffff1660e01b81526004016200391292919062004fe9565b600060405180830381600087803b1580156200392d57600080fd5b505af19250505080156200393f575060015b6200394a576200394b565b5b5b600d60008573ffffffffffffffffffffffffffffffffffffffff1673ffffffffffffffffffffffffffffffffffffffff16815260200190815260200160002060009054906101000a900460ff1662003a7657601960009054906101000a900473ffffffffffffffffffffffffffffffffffffffff1673ffffffffffffffffffffffffffffffffffffffff166314b6ca9685600860008873ffffffffffffffffffffffffffffffffffffffff1673ffffffffffffffffffffffffffffffffffffffff168152602001908152602001600020546040518363ffffffff1660e01b815260040162003a3c92919062004fe9565b600060405180830381600087803b15801562003a5757600080fd5b505af192505050801562003a69575060015b62003a745762003a75565b5b5b601960009054906101000a900473ffffffffffffffffffffffffffffffffffffffff1673ffffffffffffffffffffffffffffffffffffffff1663ffb2c479601a546040518263ffffffff1660e01b815260040162003ad5919062005252565b600060405180830381600087803b15801562003af057600080fd5b505af192505050801562003b02575060015b62003b0d5762003b0e565b5b8373ffffffffffffffffffffffffffffffffffffffff168573ffffffffffffffffffffffffffffffffffffffff167fddf252ad1be2c89b69c2b068fc378daa952ba7f163c4a11628f55a4df523b3ef8360405162003b6d919062005252565b60405180910390a360019150505b9392505050565b600062003bc683836040518060400160405280601e81526020017f536166654d6174683a207375627472616374696f6e206f766572666c6f770000815250620030cc565b905092915050565b600080828462003bdf91906200537d565b90508381101562003c27576040517f08c379a000000000000000000000000000000000000000000000000000000000815260040162003c1e9062005186565b60405180910390fd5b8091505092915050565b60008083141562003c46576000905062003caf565b6000828462003c56919062005412565b905082848262003c679190620053da565b1462003caa576040517f08c379a000000000000000000000000000000000000000000000000000000000815260040162003ca190620051ca565b60405180910390fd5b809150505b92915050565b600062003cf983836040518060400160405280601a81526020017f536166654d6174683a206469766973696f6e206279207a65726f00000000000081525062004645565b905092915050565b6006548111158062003d5c5750600b60008373ffffffffffffffffffffffffffffffffffffffff1673ffffffffffffffffffffffffffffffffffffffff16815260200190815260200160002060009054906101000a900460ff165b62003d9e576040517f08c379a000000000000000000000000000000000000000000000000000000000815260040162003d959062005120565b60405180910390fd5b5050565b6000601860009054906101000a900473ffffffffffffffffffffffffffffffffffffffff1673ffffffffffffffffffffffffffffffffffffffff163373ffffffffffffffffffffffffffffffffffffffff161415801562003e105750601f60009054906101000a900460ff16155b801562003e295750601d60009054906101000a900460ff165b801562003e775750601e54600860003073ffffffffffffffffffffffffffffffffffffffff1673ffffffffffffffffffffffffffffffffffffffff1681526020019081526020016000205410155b905090565b6001601f60006101000a81548160ff021916908315150217905550600062003ea9601554601654620013ed565b62003eb757600e5462003eba565b60005b9050600062003f00600262003ef160115462003ee286601e5462003c3190919063ffffffff16565b62003cb590919063ffffffff16565b62003cb590919063ffffffff16565b9050600062003f1b82601e5462003b8290919063ffffffff16565b90506000600267ffffffffffffffff81111562003f61577f4e487b7100000000000000000000000000000000000000000000000000000000600052604160045260246000fd5b60405190808252806020026020018201604052801562003f905781602001602082028036833780820191505090505b509050308160008151811062003fcf577f4e487b7100000000000000000000000000000000000000000000000000000000600052603260045260246000fd5b602002602001019073ffffffffffffffffffffffffffffffffffffffff16908173ffffffffffffffffffffffffffffffffffffffff1681525050600260009054906101000a900473ffffffffffffffffffffffffffffffffffffffff168160018151811062004067577f4e487b7100000000000000000000000000000000000000000000000000000000600052603260045260246000fd5b602002602001019073ffffffffffffffffffffffffffffffffffffffff16908173ffffffffffffffffffffffffffffffffffffffff16815250506000479050601760009054906101000a900473ffffffffffffffffffffffffffffffffffffffff1673ffffffffffffffffffffffffffffffffffffffff1663791ac9478460008530426040518663ffffffff1660e01b81526004016200410c9594939291906200526f565b600060405180830381600087803b1580156200412757600080fd5b505af11580156200413c573d6000803e3d6000fd5b50505050600062004157824762003b8290919063ffffffff16565b90506000620041876200417560028962003cb590919063ffffffff16565b60115462003b8290919063ffffffff16565b90506000620041c96002620041ba84620041ab8c8862003c3190919063ffffffff16565b62003cb590919063ffffffff16565b62003cb590919063ffffffff16565b90506000620041f883620041e9600f548762003c3190919063ffffffff16565b62003cb590919063ffffffff16565b905060006200422784620042186010548862003c3190919063ffffffff16565b62003cb590919063ffffffff16565b9050601960009054906101000a900473ffffffffffffffffffffffffffffffffffffffff1673ffffffffffffffffffffffffffffffffffffffff1663d0e30db0836040518263ffffffff1660e01b81526004016000604051808303818588803b1580156200429457600080fd5b505af193505050508015620042a7575060015b620042b257620042b3565b5b6000601460009054906101000a900473ffffffffffffffffffffffffffffffffffffffff1673ffffffffffffffffffffffffffffffffffffffff168261753090604051620043019062004f3e565b600060405180830381858888f193505050503d806000811462004341576040519150601f19603f3d011682016040523d82523d6000602084013e62004346565b606091505b505090506000905060008a11156200447857601760009054906101000a900473ffffffffffffffffffffffffffffffffffffffff1673ffffffffffffffffffffffffffffffffffffffff1663f305d71985308d600080601360009054906101000a900473ffffffffffffffffffffffffffffffffffffffff16426040518863ffffffff1660e01b8152600401620043e39695949392919062005016565b6060604051808303818588803b158015620043fd57600080fd5b505af115801562004412573d6000803e3d6000fd5b50505050506040513d601f19601f8201168201806040525081019062004439919062004b71565b5050507f424db2872186fa7e7afa7a5e902ed3b49a2ef19c2f5431e672462495dd6b4506848b6040516200446f929190620052d3565b60405180910390a15b50505050505050505050506000601f60006101000a81548160ff021916908315150217905550565b6000600a60008373ffffffffffffffffffffffffffffffffffffffff1673ffffffffffffffffffffffffffffffffffffffff16815260200190815260200160002060009054906101000a900460ff16159050919050565b60008062004527601254620045186011548662003c3190919063ffffffff16565b62003cb590919063ffffffff16565b90506200457d81600860003073ffffffffffffffffffffffffffffffffffffffff1673ffffffffffffffffffffffffffffffffffffffff1681526020019081526020016000205462003bce90919063ffffffff16565b600860003073ffffffffffffffffffffffffffffffffffffffff1673ffffffffffffffffffffffffffffffffffffffff168152602001908152602001600020819055503073ffffffffffffffffffffffffffffffffffffffff168473ffffffffffffffffffffffffffffffffffffffff167fddf252ad1be2c89b69c2b068fc378daa952ba7f163c4a11628f55a4df523b3ef836040516200461f919062005252565b60405180910390a36200463c818462003b8290919063ffffffff16565b91505092915050565b600080831182906200468f576040517f08c379a0000000000000000000000000000000000000000000000000000000008152600401620046869190620050da565b60405180910390fd5b5060008385620046a09190620053da565b9050809150509392505050565b6124d2806200596483390190565b600081359050620046cc81620058e1565b92915050565b600081359050620046e381620058fb565b92915050565b60008083601f840112620046fc57600080fd5b8235905067ffffffffffffffff8111156200471657600080fd5b6020830191508360208202830111156200472f57600080fd5b9250929050565b60008083601f8401126200474957600080fd5b8235905067ffffffffffffffff8111156200476357600080fd5b6020830191508360208202830111156200477c57600080fd5b9250929050565b600081359050620047948162005915565b92915050565b600081359050620047ab816200592f565b92915050565b600081519050620047c2816200592f565b92915050565b600081359050620047d98162005949565b92915050565b600060208284031215620047f257600080fd5b60006200480284828501620046bb565b91505092915050565b6000602082840312156200481e57600080fd5b60006200482e84828501620046d2565b91505092915050565b600080604083850312156200484b57600080fd5b60006200485b85828601620046bb565b92505060206200486e85828601620046bb565b9150509250929050565b6000806000606084860312156200488e57600080fd5b60006200489e86828701620046bb565b9350506020620048b186828701620046bb565b9250506040620048c4868287016200479a565b9150509250925092565b600080600080600060608688031215620048e757600080fd5b6000620048f788828901620046bb565b955050602086013567ffffffffffffffff8111156200491557600080fd5b6200492388828901620046e9565b9450945050604086013567ffffffffffffffff8111156200494357600080fd5b620049518882890162004736565b92509250509295509295909350565b600080600080606085870312156200497757600080fd5b60006200498787828801620046bb565b945050602085013567ffffffffffffffff811115620049a557600080fd5b620049b387828801620046e9565b93509350506040620049c8878288016200479a565b91505092959194509250565b60008060408385031215620049e857600080fd5b6000620049f885828601620046bb565b925050602062004a0b8582860162004783565b9150509250929050565b6000806040838503121562004a2957600080fd5b600062004a3985828601620046bb565b925050602062004a4c858286016200479a565b9150509250929050565b60006020828403121562004a6957600080fd5b600062004a798482850162004783565b91505092915050565b6000806040838503121562004a9657600080fd5b600062004aa68582860162004783565b925050602062004ab9858286016200479a565b9150509250929050565b6000806040838503121562004ad757600080fd5b600062004ae78582860162004783565b925050602062004afa85828601620047c8565b9150509250929050565b60006020828403121562004b1757600080fd5b600062004b27848285016200479a565b91505092915050565b6000806040838503121562004b4457600080fd5b600062004b54858286016200479a565b925050602062004b67858286016200479a565b9150509250929050565b60008060006060848603121562004b8757600080fd5b600062004b9786828701620047b1565b935050602062004baa86828701620047b1565b925050604062004bbd86828701620047b1565b9150509250925092565b6000806000806080858703121562004bde57600080fd5b600062004bee878288016200479a565b945050602062004c01878288016200479a565b935050604062004c14878288016200479a565b925050606062004c27878288016200479a565b91505092959194509250565b600062004c41838362004c5e565b60208301905092915050565b62004c588162005519565b82525050565b62004c6981620054ae565b82525050565b62004c7a81620054ae565b82525050565b600062004c8d826200532d565b62004c99818562005350565b935062004ca6836200531d565b8060005b8381101562004cdd57815162004cc1888262004c33565b975062004cce8362005343565b92505060018101905062004caa565b5085935050505092915050565b62004cf581620054d6565b82525050565b62004d06816200552d565b82525050565b62004d178162005555565b82525050565b62004d28816200557d565b82525050565b600062004d3b8262005338565b62004d4781856200536c565b935062004d59818560208601620055b9565b62004d64816200569b565b840191505092915050565b600062004d7e6028836200536c565b915062004d8b82620056ac565b604082019050919050565b600062004da56011836200536c565b915062004db282620056fb565b602082019050919050565b600062004dcc6025836200536c565b915062004dd98262005724565b604082019050919050565b600062004df3601c836200536c565b915062004e008262005773565b602082019050919050565b600062004e1a601b836200536c565b915062004e27826200579c565b602082019050919050565b600062004e416014836200536c565b915062004e4e82620057c5565b602082019050919050565b600062004e686021836200536c565b915062004e7582620057ee565b604082019050919050565b600062004e8f603e836200536c565b915062004e9c826200583d565b604082019050919050565b600062004eb66006836200536c565b915062004ec3826200588c565b602082019050919050565b600062004edd60008362005361565b915062004eea82620058b5565b600082019050919050565b600062004f04600b836200536c565b915062004f1182620058b8565b602082019050919050565b62004f278162005502565b82525050565b62004f38816200550c565b82525050565b600062004f4b8262004ece565b9150819050919050565b600060208201905062004f6c600083018462004c6f565b92915050565b600060208201905062004f89600083018462004c4d565b92915050565b600060408201905062004fa6600083018562004c6f565b62004fb5602083018462004c6f565b9392505050565b600060408201905062004fd3600083018562004c6f565b62004fe2602083018462004d1d565b9392505050565b600060408201905062005000600083018562004c6f565b6200500f602083018462004f1c565b9392505050565b600060c0820190506200502d600083018962004c6f565b6200503c602083018862004f1c565b6200504b604083018762004d1d565b6200505a606083018662004d1d565b62005069608083018562004c6f565b6200507860a083018462004f1c565b979650505050505050565b60006020820190506200509a600083018462004cea565b92915050565b6000602082019050620050b7600083018462004cfb565b92915050565b6000602082019050620050d4600083018462004d0c565b92915050565b60006020820190508181036000830152620050f6818462004d2e565b905092915050565b60006020820190508181036000830152620051198162004d6f565b9050919050565b600060208201905081810360008301526200513b8162004d96565b9050919050565b600060208201905081810360008301526200515d8162004dbd565b9050919050565b600060208201905081810360008301526200517f8162004de4565b9050919050565b60006020820190508181036000830152620051a18162004e0b565b9050919050565b60006020820190508181036000830152620051c38162004e32565b9050919050565b60006020820190508181036000830152620051e58162004e59565b9050919050565b60006020820190508181036000830152620052078162004e80565b9050919050565b60006020820190508181036000830152620052298162004ea7565b9050919050565b600060208201905081810360008301526200524b8162004ef5565b9050919050565b600060208201905062005269600083018462004f1c565b92915050565b600060a08201905062005286600083018862004f1c565b62005295602083018762004d1d565b8181036040830152620052a9818662004c80565b9050620052ba606083018562004c6f565b620052c9608083018462004f1c565b9695505050505050565b6000604082019050620052ea600083018562004f1c565b620052f9602083018462004f1c565b9392505050565b600060208201905062005317600083018462004f2d565b92915050565b6000819050602082019050919050565b600081519050919050565b600081519050919050565b6000602082019050919050565b600082825260208201905092915050565b600081905092915050565b600082825260208201905092915050565b60006200538a8262005502565b9150620053978362005502565b9250827fffffffffffffffffffffffffffffffffffffffffffffffffffffffffffffffff03821115620053cf57620053ce6200563d565b5b828201905092915050565b6000620053e78262005502565b9150620053f48362005502565b9250826200540757620054066200566c565b5b828204905092915050565b60006200541f8262005502565b91506200542c8362005502565b9250817fffffffffffffffffffffffffffffffffffffffffffffffffffffffffffffffff04831182151516156200546857620054676200563d565b5b828202905092915050565b6000620054808262005502565b91506200548d8362005502565b925082821015620054a357620054a26200563d565b5b828203905092915050565b6000620054bb82620054e2565b9050919050565b6000620054cf82620054e2565b9050919050565b60008115159050919050565b600073ffffffffffffffffffffffffffffffffffffffff82169050919050565b6000819050919050565b600060ff82169050919050565b6000620055268262005591565b9050919050565b60006200553a8262005541565b9050919050565b60006200554e82620054e2565b9050919050565b6000620055628262005569565b9050919050565b60006200557682620054e2565b9050919050565b60006200558a8262005502565b9050919050565b60006200559e82620055a5565b9050919050565b6000620055b282620054e2565b9050919050565b60005b83811015620055d9578082015181840152602081019050620055bc565b83811115620055e9576000848401525b50505050565b6000620055fc8262005502565b91507fffffffffffffffffffffffffffffffffffffffffffffffffffffffffffffffff8214156200563257620056316200563d565b5b600182019050919050565b7f4e487b7100000000000000000000000000000000000000000000000000000000600052601160045260246000fd5b7f4e487b7100000000000000000000000000000000000000000000000000000000600052601260045260246000fd5b6000601f19601f8301169050919050565b7f4d69736d61746368206265747765656e204164647265737320616e6420746f6b60008201527f656e20636f756e74000000000000000000000000000000000000000000000000602082015250565b7f5458204c696d6974204578636565646564000000000000000000000000000000600082015250565b7f506c65617365207761697420666f7220636f6f6c646f776e206265747765656e60008201527f2062757973000000000000000000000000000000000000000000000000000000602082015250565b7f4e6f7420656e6f75676820746f6b656e7320746f2061697264726f7000000000600082015250565b7f536166654d6174683a206164646974696f6e206f766572666c6f770000000000600082015250565b7f54726164696e67206e6f74206f70656e20796574000000000000000000000000600082015250565b7f536166654d6174683a206d756c7469706c69636174696f6e206f766572666c6f60008201527f7700000000000000000000000000000000000000000000000000000000000000602082015250565b7f546f74616c20486f6c64696e672069732063757272656e746c79206c696d697460008201527f65642c20796f752063616e206e6f74206275792074686174206d7563682e0000602082015250565b7f214f574e45520000000000000000000000000000000000000000000000000000600082015250565b50565b7f21415554484f52495a4544000000000000000000000000000000000000000000600082015250565b620058ec81620054ae565b8114620058f857600080fd5b50565b6200590681620054c2565b81146200591257600080fd5b50565b6200592081620054d6565b81146200592c57600080fd5b50565b6200593a8162005502565b81146200594657600080fd5b50565b62005954816200550c565b81146200596057600080fd5b5056fe608060405273bb4cdb9cbd36b01bd1cbaebf2de08d9173bc095c600260006101000a81548173ffffffffffffffffffffffffffffffffffffffff021916908373ffffffffffffffffffffffffffffffffffffffff1602179055506ec097ce7bc90715b34b9f1000000000600c55610708600d55633b9aca00600e553480156200008757600080fd5b50604051620024d2380380620024d28339818101604052810190620000ad9190620001e0565b600073ffffffffffffffffffffffffffffffffffffffff168273ffffffffffffffffffffffffffffffffffffffff161415620000fe577310ed43c718714eb63d5aa57b78b54704e256024e62000100565b815b600360006101000a81548173ffffffffffffffffffffffffffffffffffffffff021916908373ffffffffffffffffffffffffffffffffffffffff160217905550336000806101000a81548173ffffffffffffffffffffffffffffffffffffffff021916908373ffffffffffffffffffffffffffffffffffffffff16021790555080600160006101000a81548173ffffffffffffffffffffffffffffffffffffffff021916908373ffffffffffffffffffffffffffffffffffffffff16021790555050506200026f565b600081519050620001da8162000255565b92915050565b60008060408385031215620001f457600080fd5b60006200020485828601620001c9565b92505060206200021785828601620001c9565b9150509250929050565b60006200022e8262000235565b9050919050565b600073ffffffffffffffffffffffffffffffffffffffff82169050919050565b620002608162000221565b81146200026c57600080fd5b50565b612253806200027f6000396000f3fe6080604052600436106101145760003560e01c8063cab34c08116100a0578063efca2eed11610064578063efca2eed14610372578063f0fc6bca1461039d578063f887ea40146103b4578063ffb2c479146103df578063ffd49c841461040857610114565b8063cab34c08146102a8578063ce7c2ac2146102d3578063d0e30db014610312578063e2d2e2191461031c578063ecd0c0c31461034757610114565b80633a98ef39116100e75780633a98ef39146101d35780634fab0ae8146101fe5780638dd9500214610229578063997664d714610254578063a6871bc31461027f57610114565b806311ce023d1461011957806314b6ca961461014457806328fd31981461016d5780632d48e896146101aa575b600080fd5b34801561012557600080fd5b5061012e610433565b60405161013b9190611e17565b60405180910390f35b34801561015057600080fd5b5061016b60048036038101906101669190611aad565b610439565b005b34801561017957600080fd5b50610194600480360381019061018f9190611a84565b6106f8565b6040516101a19190611e17565b60405180910390f35b3480156101b657600080fd5b506101d160048036038101906101cc9190611b64565b610812565b005b3480156101df57600080fd5b506101e861087c565b6040516101f59190611e17565b60405180910390f35b34801561020a57600080fd5b50610213610882565b6040516102209190611e17565b60405180910390f35b34801561023557600080fd5b5061023e610888565b60405161024b9190611cef565b60405180910390f35b34801561026057600080fd5b506102696108ae565b6040516102769190611e17565b60405180910390f35b34801561028b57600080fd5b506102a660048036038101906102a19190611a84565b6108b4565b005b3480156102b457600080fd5b506102bd610a6f565b6040516102ca9190611d33565b60405180910390f35b3480156102df57600080fd5b506102fa60048036038101906102f59190611a84565b610a95565b60405161030993929190611e32565b60405180910390f35b61031a610abf565b005b34801561032857600080fd5b50610331610f21565b60405161033e9190611e17565b60405180910390f35b34801561035357600080fd5b5061035c610f27565b6040516103699190611cef565b60405180910390f35b34801561037e57600080fd5b50610387610f4b565b6040516103949190611e17565b60405180910390f35b3480156103a957600080fd5b506103b2610f51565b005b3480156103c057600080fd5b506103c9610f5c565b6040516103d69190611d4e565b60405180910390f35b3480156103eb57600080fd5b5061040660048036038101906104019190611b12565b610f82565b005b34801561041457600080fd5b5061041d611162565b60405161042a9190611e17565b60405180910390f35b600c5481565b60008054906101000a900473ffffffffffffffffffffffffffffffffffffffff1673ffffffffffffffffffffffffffffffffffffffff163373ffffffffffffffffffffffffffffffffffffffff161461049157600080fd5b6000600760008473ffffffffffffffffffffffffffffffffffffffff1673ffffffffffffffffffffffffffffffffffffffff1681526020019081526020016000206000015411156104e6576104e582611168565b5b60008111801561053857506000600760008473ffffffffffffffffffffffffffffffffffffffff1673ffffffffffffffffffffffffffffffffffffffff16815260200190815260200160002060000154145b1561054b576105468261140f565b6105ad565b60008114801561059d57506000600760008473ffffffffffffffffffffffffffffffffffffffff1673ffffffffffffffffffffffffffffffffffffffff16815260200190815260200160002060000154115b156105ac576105ab826114be565b5b5b61061681610608600760008673ffffffffffffffffffffffffffffffffffffffff1673ffffffffffffffffffffffffffffffffffffffff1681526020019081526020016000206000015460085461175d90919063ffffffff16565b6117a790919063ffffffff16565b60088190555080600760008473ffffffffffffffffffffffffffffffffffffffff1673ffffffffffffffffffffffffffffffffffffffff168152602001908152602001600020600001819055506106ae600760008473ffffffffffffffffffffffffffffffffffffffff1673ffffffffffffffffffffffffffffffffffffffff16815260200190815260200160002060000154611805565b600760008473ffffffffffffffffffffffffffffffffffffffff1673ffffffffffffffffffffffffffffffffffffffff168152602001908152602001600020600101819055505050565b600080600760008473ffffffffffffffffffffffffffffffffffffffff1673ffffffffffffffffffffffffffffffffffffffff16815260200190815260200160002060000154141561074d576000905061080d565b600061079a600760008573ffffffffffffffffffffffffffffffffffffffff1673ffffffffffffffffffffffffffffffffffffffff16815260200190815260200160002060000154611805565b90506000600760008573ffffffffffffffffffffffffffffffffffffffff1673ffffffffffffffffffffffffffffffffffffffff1681526020019081526020016000206001015490508082116107f55760009250505061080d565b610808818361175d90919063ffffffff16565b925050505b919050565b60008054906101000a900473ffffffffffffffffffffffffffffffffffffffff1673ffffffffffffffffffffffffffffffffffffffff163373ffffffffffffffffffffffffffffffffffffffff161461086a57600080fd5b81600d8190555080600e819055505050565b60085481565b600e5481565b600260009054906101000a900473ffffffffffffffffffffffffffffffffffffffff1681565b60095481565b60008054906101000a900473ffffffffffffffffffffffffffffffffffffffff1673ffffffffffffffffffffffffffffffffffffffff163373ffffffffffffffffffffffffffffffffffffffff161461090c57600080fd5b6000600160009054906101000a900473ffffffffffffffffffffffffffffffffffffffff1673ffffffffffffffffffffffffffffffffffffffff166370a08231306040518263ffffffff1660e01b81526004016109699190611cef565b60206040518083038186803b15801561098157600080fd5b505afa158015610995573d6000803e3d6000fd5b505050506040513d601f19601f820116820180604052508101906109b99190611b3b565b9050600160009054906101000a900473ffffffffffffffffffffffffffffffffffffffff1673ffffffffffffffffffffffffffffffffffffffff1663a9059cbb83836040518363ffffffff1660e01b8152600401610a18929190611d0a565b602060405180830381600087803b158015610a3257600080fd5b505af1158015610a46573d6000803e3d6000fd5b505050506040513d601f19601f82011682018060405250810190610a6a9190611ae9565b505050565b600160009054906101000a900473ffffffffffffffffffffffffffffffffffffffff1681565b60076020528060005260406000206000915090508060000154908060010154908060020154905083565b60008054906101000a900473ffffffffffffffffffffffffffffffffffffffff1673ffffffffffffffffffffffffffffffffffffffff163373ffffffffffffffffffffffffffffffffffffffff1614610b1757600080fd5b6000600160009054906101000a900473ffffffffffffffffffffffffffffffffffffffff1673ffffffffffffffffffffffffffffffffffffffff166370a08231306040518263ffffffff1660e01b8152600401610b749190611cef565b60206040518083038186803b158015610b8c57600080fd5b505afa158015610ba0573d6000803e3d6000fd5b505050506040513d601f19601f82011682018060405250810190610bc49190611b3b565b90506000600267ffffffffffffffff811115610c09577f4e487b7100000000000000000000000000000000000000000000000000000000600052604160045260246000fd5b604051908082528060200260200182016040528015610c375781602001602082028036833780820191505090505b509050600260009054906101000a900473ffffffffffffffffffffffffffffffffffffffff1681600081518110610c97577f4e487b7100000000000000000000000000000000000000000000000000000000600052603260045260246000fd5b602002602001019073ffffffffffffffffffffffffffffffffffffffff16908173ffffffffffffffffffffffffffffffffffffffff1681525050600160009054906101000a900473ffffffffffffffffffffffffffffffffffffffff1681600181518110610d2e577f4e487b7100000000000000000000000000000000000000000000000000000000600052603260045260246000fd5b602002602001019073ffffffffffffffffffffffffffffffffffffffff16908173ffffffffffffffffffffffffffffffffffffffff1681525050600360009054906101000a900473ffffffffffffffffffffffffffffffffffffffff1673ffffffffffffffffffffffffffffffffffffffff1663b6f9de953460008430426040518663ffffffff1660e01b8152600401610dcb9493929190611d69565b6000604051808303818588803b158015610de457600080fd5b505af1158015610df8573d6000803e3d6000fd5b50505050506000610ebc83600160009054906101000a900473ffffffffffffffffffffffffffffffffffffffff1673ffffffffffffffffffffffffffffffffffffffff166370a08231306040518263ffffffff1660e01b8152600401610e5e9190611cef565b60206040518083038186803b158015610e7657600080fd5b505afa158015610e8a573d6000803e3d6000fd5b505050506040513d601f19601f82011682018060405250810190610eae9190611b3b565b61175d90919063ffffffff16565b9050610ed3816009546117a790919063ffffffff16565b600981905550610f16610f05600854610ef784600c5461183790919063ffffffff16565b6118b290919063ffffffff16565b600b546117a790919063ffffffff16565b600b81905550505050565b600b5481565b60008054906101000a900473ffffffffffffffffffffffffffffffffffffffff1681565b600a5481565b610f5a33611168565b565b600360009054906101000a900473ffffffffffffffffffffffffffffffffffffffff1681565b60008054906101000a900473ffffffffffffffffffffffffffffffffffffffff1673ffffffffffffffffffffffffffffffffffffffff163373ffffffffffffffffffffffffffffffffffffffff1614610fda57600080fd5b600060048054905090506000811415610ff3575061115f565b6000805a905060005b848310801561100a57508381105b1561115a5783600f5410611021576000600f819055505b6110906004600f5481548110611060577f4e487b7100000000000000000000000000000000000000000000000000000000600052603260045260246000fd5b9060005260206000200160009054906101000a900473ffffffffffffffffffffffffffffffffffffffff166118fc565b15611105576111046004600f54815481106110d4577f4e487b7100000000000000000000000000000000000000000000000000000000600052603260045260246000fd5b9060005260206000200160009054906101000a900473ffffffffffffffffffffffffffffffffffffffff16611168565b5b61112a61111b5a8461175d90919063ffffffff16565b846117a790919063ffffffff16565b92505a9150600f6000815480929190611142906120a8565b91905055508080611152906120a8565b915050610ffc565b505050505b50565b600d5481565b6000600760008373ffffffffffffffffffffffffffffffffffffffff1673ffffffffffffffffffffffffffffffffffffffff1681526020019081526020016000206000015414156111b85761140c565b60006111c3826106f8565b9050600081111561140a576111e381600a546117a790919063ffffffff16565b600a81905550600160009054906101000a900473ffffffffffffffffffffffffffffffffffffffff1673ffffffffffffffffffffffffffffffffffffffff1663a9059cbb83836040518363ffffffff1660e01b8152600401611246929190611d0a565b602060405180830381600087803b15801561126057600080fd5b505af1158015611274573d6000803e3d6000fd5b505050506040513d601f19601f820116820180604052508101906112989190611ae9565b5042600660008473ffffffffffffffffffffffffffffffffffffffff1673ffffffffffffffffffffffffffffffffffffffff1681526020019081526020016000208190555061133281600760008573ffffffffffffffffffffffffffffffffffffffff1673ffffffffffffffffffffffffffffffffffffffff168152602001908152602001600020600201546117a790919063ffffffff16565b600760008473ffffffffffffffffffffffffffffffffffffffff1673ffffffffffffffffffffffffffffffffffffffff168152602001908152602001600020600201819055506113c3600760008473ffffffffffffffffffffffffffffffffffffffff1673ffffffffffffffffffffffffffffffffffffffff16815260200190815260200160002060000154611805565b600760008473ffffffffffffffffffffffffffffffffffffffff1673ffffffffffffffffffffffffffffffffffffffff168152602001908152602001600020600101819055505b505b50565b600480549050600560008373ffffffffffffffffffffffffffffffffffffffff1673ffffffffffffffffffffffffffffffffffffffff168152602001908152602001600020819055506004819080600181540180825580915050600190039060005260206000200160009091909190916101000a81548173ffffffffffffffffffffffffffffffffffffffff021916908373ffffffffffffffffffffffffffffffffffffffff16021790555050565b600460016004805490506114d29190611f9f565b81548110611509577f4e487b7100000000000000000000000000000000000000000000000000000000600052603260045260246000fd5b9060005260206000200160009054906101000a900473ffffffffffffffffffffffffffffffffffffffff166004600560008473ffffffffffffffffffffffffffffffffffffffff1673ffffffffffffffffffffffffffffffffffffffff16815260200190815260200160002054815481106115ad577f4e487b7100000000000000000000000000000000000000000000000000000000600052603260045260246000fd5b9060005260206000200160006101000a81548173ffffffffffffffffffffffffffffffffffffffff021916908373ffffffffffffffffffffffffffffffffffffffff160217905550600560008273ffffffffffffffffffffffffffffffffffffffff1673ffffffffffffffffffffffffffffffffffffffff16815260200190815260200160002054600560006004600160048054905061164d9190611f9f565b81548110611684577f4e487b7100000000000000000000000000000000000000000000000000000000600052603260045260246000fd5b9060005260206000200160009054906101000a900473ffffffffffffffffffffffffffffffffffffffff1673ffffffffffffffffffffffffffffffffffffffff1673ffffffffffffffffffffffffffffffffffffffff168152602001908152602001600020819055506004805480611725577f4e487b7100000000000000000000000000000000000000000000000000000000600052603160045260246000fd5b6001900381819060005260206000200160006101000a81549073ffffffffffffffffffffffffffffffffffffffff0219169055905550565b600061179f83836040518060400160405280601e81526020017f536166654d6174683a207375627472616374696f6e206f766572666c6f770000815250611969565b905092915050565b60008082846117b69190611ebe565b9050838110156117fb576040517f08c379a00000000000000000000000000000000000000000000000000000000081526004016117f290611dd7565b60405180910390fd5b8091505092915050565b6000611830600c54611822600b548561183790919063ffffffff16565b6118b290919063ffffffff16565b9050919050565b60008083141561184a57600090506118ac565b600082846118589190611f45565b90508284826118679190611f14565b146118a7576040517f08c379a000000000000000000000000000000000000000000000000000000000815260040161189e90611df7565b60405180910390fd5b809150505b92915050565b60006118f483836040518060400160405280601a81526020017f536166654d6174683a206469766973696f6e206279207a65726f0000000000008152506119cd565b905092915050565b600042600d54600660008573ffffffffffffffffffffffffffffffffffffffff1673ffffffffffffffffffffffffffffffffffffffff1681526020019081526020016000205461194c9190611ebe565b1080156119625750600e54611960836106f8565b115b9050919050565b60008383111582906119b1576040517f08c379a00000000000000000000000000000000000000000000000000000000081526004016119a89190611db5565b60405180910390fd5b50600083856119c09190611f9f565b9050809150509392505050565b60008083118290611a14576040517f08c379a0000000000000000000000000000000000000000000000000000000008152600401611a0b9190611db5565b60405180910390fd5b5060008385611a239190611f14565b9050809150509392505050565b600081359050611a3f816121d8565b92915050565b600081519050611a54816121ef565b92915050565b600081359050611a6981612206565b92915050565b600081519050611a7e81612206565b92915050565b600060208284031215611a9657600080fd5b6000611aa484828501611a30565b91505092915050565b60008060408385031215611ac057600080fd5b6000611ace85828601611a30565b9250506020611adf85828601611a5a565b9150509250929050565b600060208284031215611afb57600080fd5b6000611b0984828501611a45565b91505092915050565b600060208284031215611b2457600080fd5b6000611b3284828501611a5a565b91505092915050565b600060208284031215611b4d57600080fd5b6000611b5b84828501611a6f565b91505092915050565b60008060408385031215611b7757600080fd5b6000611b8585828601611a5a565b9250506020611b9685828601611a5a565b9150509250929050565b6000611bac8383611bb8565b60208301905092915050565b611bc181611fd3565b82525050565b611bd081611fd3565b82525050565b6000611be182611e79565b611beb8185611e9c565b9350611bf683611e69565b8060005b83811015611c27578151611c0e8882611ba0565b9750611c1983611e8f565b925050600181019050611bfa565b5085935050505092915050565b611c3d8161201b565b82525050565b611c4c8161203f565b82525050565b611c5b81612063565b82525050565b6000611c6c82611e84565b611c768185611ead565b9350611c86818560208601612075565b611c8f8161214f565b840191505092915050565b6000611ca7601b83611ead565b9150611cb282612160565b602082019050919050565b6000611cca602183611ead565b9150611cd582612189565b604082019050919050565b611ce981612011565b82525050565b6000602082019050611d046000830184611bc7565b92915050565b6000604082019050611d1f6000830185611bc7565b611d2c6020830184611ce0565b9392505050565b6000602082019050611d486000830184611c34565b92915050565b6000602082019050611d636000830184611c43565b92915050565b6000608082019050611d7e6000830187611c52565b8181036020830152611d908186611bd6565b9050611d9f6040830185611bc7565b611dac6060830184611ce0565b95945050505050565b60006020820190508181036000830152611dcf8184611c61565b905092915050565b60006020820190508181036000830152611df081611c9a565b9050919050565b60006020820190508181036000830152611e1081611cbd565b9050919050565b6000602082019050611e2c6000830184611ce0565b92915050565b6000606082019050611e476000830186611ce0565b611e546020830185611ce0565b611e616040830184611ce0565b949350505050565b6000819050602082019050919050565b600081519050919050565b600081519050919050565b6000602082019050919050565b600082825260208201905092915050565b600082825260208201905092915050565b6000611ec982612011565b9150611ed483612011565b9250827fffffffffffffffffffffffffffffffffffffffffffffffffffffffffffffffff03821115611f0957611f086120f1565b5b828201905092915050565b6000611f1f82612011565b9150611f2a83612011565b925082611f3a57611f39612120565b5b828204905092915050565b6000611f5082612011565b9150611f5b83612011565b9250817fffffffffffffffffffffffffffffffffffffffffffffffffffffffffffffffff0483118215151615611f9457611f936120f1565b5b828202905092915050565b6000611faa82612011565b9150611fb583612011565b925082821015611fc857611fc76120f1565b5b828203905092915050565b6000611fde82611ff1565b9050919050565b60008115159050919050565b600073ffffffffffffffffffffffffffffffffffffffff82169050919050565b6000819050919050565b60006120268261202d565b9050919050565b600061203882611ff1565b9050919050565b600061204a82612051565b9050919050565b600061205c82611ff1565b9050919050565b600061206e82612011565b9050919050565b60005b83811015612093578082015181840152602081019050612078565b838111156120a2576000848401525b50505050565b60006120b382612011565b91507fffffffffffffffffffffffffffffffffffffffffffffffffffffffffffffffff8214156120e6576120e56120f1565b5b600182019050919050565b7f4e487b7100000000000000000000000000000000000000000000000000000000600052601160045260246000fd5b7f4e487b7100000000000000000000000000000000000000000000000000000000600052601260045260246000fd5b6000601f19601f8301169050919050565b7f536166654d6174683a206164646974696f6e206f766572666c6f770000000000600082015250565b7f536166654d6174683a206d756c7469706c69636174696f6e206f766572666c6f60008201527f7700000000000000000000000000000000000000000000000000000000000000602082015250565b6121e181611fd3565b81146121ec57600080fd5b50565b6121f881611fe5565b811461220357600080fd5b50565b61220f81612011565b811461221a57600080fd5b5056fea264697066735822122029141f7021073ac3cb777b19db935c83de718182debbcf87c1f8de5440a787d464736f6c63430008040033a26469706673582212204cd013eddc999d9bf9d788335797c642c568c54f3d8c5673759c21f1727ac49964736f6c63430008040033608060405273bb4cdb9cbd36b01bd1cbaebf2de08d9173bc095c600260006101000a81548173ffffffffffffffffffffffffffffffffffffffff021916908373ffffffffffffffffffffffffffffffffffffffff1602179055506ec097ce7bc90715b34b9f1000000000600c55610708600d55633b9aca00600e553480156200008757600080fd5b50604051620024d2380380620024d28339818101604052810190620000ad9190620001e0565b600073ffffffffffffffffffffffffffffffffffffffff168273ffffffffffffffffffffffffffffffffffffffff161415620000fe577310ed43c718714eb63d5aa57b78b54704e256024e62000100565b815b600360006101000a81548173ffffffffffffffffffffffffffffffffffffffff021916908373ffffffffffffffffffffffffffffffffffffffff160217905550336000806101000a81548173ffffffffffffffffffffffffffffffffffffffff021916908373ffffffffffffffffffffffffffffffffffffffff16021790555080600160006101000a81548173ffffffffffffffffffffffffffffffffffffffff021916908373ffffffffffffffffffffffffffffffffffffffff16021790555050506200026f565b600081519050620001da8162000255565b92915050565b60008060408385031215620001f457600080fd5b60006200020485828601620001c9565b92505060206200021785828601620001c9565b9150509250929050565b60006200022e8262000235565b9050919050565b600073ffffffffffffffffffffffffffffffffffffffff82169050919050565b620002608162000221565b81146200026c57600080fd5b50565b612253806200027f6000396000f3fe6080604052600436106101145760003560e01c8063cab34c08116100a0578063efca2eed11610064578063efca2eed14610372578063f0fc6bca1461039d578063f887ea40146103b4578063ffb2c479146103df578063ffd49c841461040857610114565b8063cab34c08146102a8578063ce7c2ac2146102d3578063d0e30db014610312578063e2d2e2191461031c578063ecd0c0c31461034757610114565b80633a98ef39116100e75780633a98ef39146101d35780634fab0ae8146101fe5780638dd9500214610229578063997664d714610254578063a6871bc31461027f57610114565b806311ce023d1461011957806314b6ca961461014457806328fd31981461016d5780632d48e896146101aa575b600080fd5b34801561012557600080fd5b5061012e610433565b60405161013b9190611e17565b60405180910390f35b34801561015057600080fd5b5061016b60048036038101906101669190611aad565b610439565b005b34801561017957600080fd5b50610194600480360381019061018f9190611a84565b6106f8565b6040516101a19190611e17565b60405180910390f35b3480156101b657600080fd5b506101d160048036038101906101cc9190611b64565b610812565b005b3480156101df57600080fd5b506101e861087c565b6040516101f59190611e17565b60405180910390f35b34801561020a57600080fd5b50610213610882565b6040516102209190611e17565b60405180910390f35b34801561023557600080fd5b5061023e610888565b60405161024b9190611cef565b60405180910390f35b34801561026057600080fd5b506102696108ae565b6040516102769190611e17565b60405180910390f35b34801561028b57600080fd5b506102a660048036038101906102a19190611a84565b6108b4565b005b3480156102b457600080fd5b506102bd610a6f565b6040516102ca9190611d33565b60405180910390f35b3480156102df57600080fd5b506102fa60048036038101906102f59190611a84565b610a95565b60405161030993929190611e32565b60405180910390f35b61031a610abf565b005b34801561032857600080fd5b50610331610f21565b60405161033e9190611e17565b60405180910390f35b34801561035357600080fd5b5061035c610f27565b6040516103699190611cef565b60405180910390f35b34801561037e57600080fd5b50610387610f4b565b6040516103949190611e17565b60405180910390f35b3480156103a957600080fd5b506103b2610f51565b005b3480156103c057600080fd5b506103c9610f5c565b6040516103d69190611d4e565b60405180910390f35b3480156103eb57600080fd5b5061040660048036038101906104019190611b12565b610f82565b005b34801561041457600080fd5b5061041d611162565b60405161042a9190611e17565b60405180910390f35b600c5481565b60008054906101000a900473ffffffffffffffffffffffffffffffffffffffff1673ffffffffffffffffffffffffffffffffffffffff163373ffffffffffffffffffffffffffffffffffffffff161461049157600080fd5b6000600760008473ffffffffffffffffffffffffffffffffffffffff1673ffffffffffffffffffffffffffffffffffffffff1681526020019081526020016000206000015411156104e6576104e582611168565b5b60008111801561053857506000600760008473ffffffffffffffffffffffffffffffffffffffff1673ffffffffffffffffffffffffffffffffffffffff16815260200190815260200160002060000154145b1561054b576105468261140f565b6105ad565b60008114801561059d57506000600760008473ffffffffffffffffffffffffffffffffffffffff1673ffffffffffffffffffffffffffffffffffffffff16815260200190815260200160002060000154115b156105ac576105ab826114be565b5b5b61061681610608600760008673ffffffffffffffffffffffffffffffffffffffff1673ffffffffffffffffffffffffffffffffffffffff1681526020019081526020016000206000015460085461175d90919063ffffffff16565b6117a790919063ffffffff16565b60088190555080600760008473ffffffffffffffffffffffffffffffffffffffff1673ffffffffffffffffffffffffffffffffffffffff168152602001908152602001600020600001819055506106ae600760008473ffffffffffffffffffffffffffffffffffffffff1673ffffffffffffffffffffffffffffffffffffffff16815260200190815260200160002060000154611805565b600760008473ffffffffffffffffffffffffffffffffffffffff1673ffffffffffffffffffffffffffffffffffffffff168152602001908152602001600020600101819055505050565b600080600760008473ffffffffffffffffffffffffffffffffffffffff1673ffffffffffffffffffffffffffffffffffffffff16815260200190815260200160002060000154141561074d576000905061080d565b600061079a600760008573ffffffffffffffffffffffffffffffffffffffff1673ffffffffffffffffffffffffffffffffffffffff16815260200190815260200160002060000154611805565b90506000600760008573ffffffffffffffffffffffffffffffffffffffff1673ffffffffffffffffffffffffffffffffffffffff1681526020019081526020016000206001015490508082116107f55760009250505061080d565b610808818361175d90919063ffffffff16565b925050505b919050565b60008054906101000a900473ffffffffffffffffffffffffffffffffffffffff1673ffffffffffffffffffffffffffffffffffffffff163373ffffffffffffffffffffffffffffffffffffffff161461086a57600080fd5b81600d8190555080600e819055505050565b60085481565b600e5481565b600260009054906101000a900473ffffffffffffffffffffffffffffffffffffffff1681565b60095481565b60008054906101000a900473ffffffffffffffffffffffffffffffffffffffff1673ffffffffffffffffffffffffffffffffffffffff163373ffffffffffffffffffffffffffffffffffffffff161461090c57600080fd5b6000600160009054906101000a900473ffffffffffffffffffffffffffffffffffffffff1673ffffffffffffffffffffffffffffffffffffffff166370a08231306040518263ffffffff1660e01b81526004016109699190611cef565b60206040518083038186803b15801561098157600080fd5b505afa158015610995573d6000803e3d6000fd5b505050506040513d601f19601f820116820180604052508101906109b99190611b3b565b9050600160009054906101000a900473ffffffffffffffffffffffffffffffffffffffff1673ffffffffffffffffffffffffffffffffffffffff1663a9059cbb83836040518363ffffffff1660e01b8152600401610a18929190611d0a565b602060405180830381600087803b158015610a3257600080fd5b505af1158015610a46573d6000803e3d6000fd5b505050506040513d601f19601f82011682018060405250810190610a6a9190611ae9565b505050565b600160009054906101000a900473ffffffffffffffffffffffffffffffffffffffff1681565b60076020528060005260406000206000915090508060000154908060010154908060020154905083565b60008054906101000a900473ffffffffffffffffffffffffffffffffffffffff1673ffffffffffffffffffffffffffffffffffffffff163373ffffffffffffffffffffffffffffffffffffffff1614610b1757600080fd5b6000600160009054906101000a900473ffffffffffffffffffffffffffffffffffffffff1673ffffffffffffffffffffffffffffffffffffffff166370a08231306040518263ffffffff1660e01b8152600401610b749190611cef565b60206040518083038186803b158015610b8c57600080fd5b505afa158015610ba0573d6000803e3d6000fd5b505050506040513d601f19601f82011682018060405250810190610bc49190611b3b565b90506000600267ffffffffffffffff811115610c09577f4e487b7100000000000000000000000000000000000000000000000000000000600052604160045260246000fd5b604051908082528060200260200182016040528015610c375781602001602082028036833780820191505090505b509050600260009054906101000a900473ffffffffffffffffffffffffffffffffffffffff1681600081518110610c97577f4e487b7100000000000000000000000000000000000000000000000000000000600052603260045260246000fd5b602002602001019073ffffffffffffffffffffffffffffffffffffffff16908173ffffffffffffffffffffffffffffffffffffffff1681525050600160009054906101000a900473ffffffffffffffffffffffffffffffffffffffff1681600181518110610d2e577f4e487b7100000000000000000000000000000000000000000000000000000000600052603260045260246000fd5b602002602001019073ffffffffffffffffffffffffffffffffffffffff16908173ffffffffffffffffffffffffffffffffffffffff1681525050600360009054906101000a900473ffffffffffffffffffffffffffffffffffffffff1673ffffffffffffffffffffffffffffffffffffffff1663b6f9de953460008430426040518663ffffffff1660e01b8152600401610dcb9493929190611d69565b6000604051808303818588803b158015610de457600080fd5b505af1158015610df8573d6000803e3d6000fd5b50505050506000610ebc83600160009054906101000a900473ffffffffffffffffffffffffffffffffffffffff1673ffffffffffffffffffffffffffffffffffffffff166370a08231306040518263ffffffff1660e01b8152600401610e5e9190611cef565b60206040518083038186803b158015610e7657600080fd5b505afa158015610e8a573d6000803e3d6000fd5b505050506040513d601f19601f82011682018060405250810190610eae9190611b3b565b61175d90919063ffffffff16565b9050610ed3816009546117a790919063ffffffff16565b600981905550610f16610f05600854610ef784600c5461183790919063ffffffff16565b6118b290919063ffffffff16565b600b546117a790919063ffffffff16565b600b81905550505050565b600b5481565b60008054906101000a900473ffffffffffffffffffffffffffffffffffffffff1681565b600a5481565b610f5a33611168565b565b600360009054906101000a900473ffffffffffffffffffffffffffffffffffffffff1681565b60008054906101000a900473ffffffffffffffffffffffffffffffffffffffff1673ffffffffffffffffffffffffffffffffffffffff163373ffffffffffffffffffffffffffffffffffffffff1614610fda57600080fd5b600060048054905090506000811415610ff3575061115f565b6000805a905060005b848310801561100a57508381105b1561115a5783600f5410611021576000600f819055505b6110906004600f5481548110611060577f4e487b7100000000000000000000000000000000000000000000000000000000600052603260045260246000fd5b9060005260206000200160009054906101000a900473ffffffffffffffffffffffffffffffffffffffff166118fc565b15611105576111046004600f54815481106110d4577f4e487b7100000000000000000000000000000000000000000000000000000000600052603260045260246000fd5b9060005260206000200160009054906101000a900473ffffffffffffffffffffffffffffffffffffffff16611168565b5b61112a61111b5a8461175d90919063ffffffff16565b846117a790919063ffffffff16565b92505a9150600f6000815480929190611142906120a8565b91905055508080611152906120a8565b915050610ffc565b505050505b50565b600d5481565b6000600760008373ffffffffffffffffffffffffffffffffffffffff1673ffffffffffffffffffffffffffffffffffffffff1681526020019081526020016000206000015414156111b85761140c565b60006111c3826106f8565b9050600081111561140a576111e381600a546117a790919063ffffffff16565b600a81905550600160009054906101000a900473ffffffffffffffffffffffffffffffffffffffff1673ffffffffffffffffffffffffffffffffffffffff1663a9059cbb83836040518363ffffffff1660e01b8152600401611246929190611d0a565b602060405180830381600087803b15801561126057600080fd5b505af1158015611274573d6000803e3d6000fd5b505050506040513d601f19601f820116820180604052508101906112989190611ae9565b5042600660008473ffffffffffffffffffffffffffffffffffffffff1673ffffffffffffffffffffffffffffffffffffffff1681526020019081526020016000208190555061133281600760008573ffffffffffffffffffffffffffffffffffffffff1673ffffffffffffffffffffffffffffffffffffffff168152602001908152602001600020600201546117a790919063ffffffff16565b600760008473ffffffffffffffffffffffffffffffffffffffff1673ffffffffffffffffffffffffffffffffffffffff168152602001908152602001600020600201819055506113c3600760008473ffffffffffffffffffffffffffffffffffffffff1673ffffffffffffffffffffffffffffffffffffffff16815260200190815260200160002060000154611805565b600760008473ffffffffffffffffffffffffffffffffffffffff1673ffffffffffffffffffffffffffffffffffffffff168152602001908152602001600020600101819055505b505b50565b600480549050600560008373ffffffffffffffffffffffffffffffffffffffff1673ffffffffffffffffffffffffffffffffffffffff168152602001908152602001600020819055506004819080600181540180825580915050600190039060005260206000200160009091909190916101000a81548173ffffffffffffffffffffffffffffffffffffffff021916908373ffffffffffffffffffffffffffffffffffffffff16021790555050565b600460016004805490506114d29190611f9f565b81548110611509577f4e487b7100000000000000000000000000000000000000000000000000000000600052603260045260246000fd5b9060005260206000200160009054906101000a900473ffffffffffffffffffffffffffffffffffffffff166004600560008473ffffffffffffffffffffffffffffffffffffffff1673ffffffffffffffffffffffffffffffffffffffff16815260200190815260200160002054815481106115ad577f4e487b7100000000000000000000000000000000000000000000000000000000600052603260045260246000fd5b9060005260206000200160006101000a81548173ffffffffffffffffffffffffffffffffffffffff021916908373ffffffffffffffffffffffffffffffffffffffff160217905550600560008273ffffffffffffffffffffffffffffffffffffffff1673ffffffffffffffffffffffffffffffffffffffff16815260200190815260200160002054600560006004600160048054905061164d9190611f9f565b81548110611684577f4e487b7100000000000000000000000000000000000000000000000000000000600052603260045260246000fd5b9060005260206000200160009054906101000a900473ffffffffffffffffffffffffffffffffffffffff1673ffffffffffffffffffffffffffffffffffffffff1673ffffffffffffffffffffffffffffffffffffffff168152602001908152602001600020819055506004805480611725577f4e487b7100000000000000000000000000000000000000000000000000000000600052603160045260246000fd5b6001900381819060005260206000200160006101000a81549073ffffffffffffffffffffffffffffffffffffffff0219169055905550565b600061179f83836040518060400160405280601e81526020017f536166654d6174683a207375627472616374696f6e206f766572666c6f770000815250611969565b905092915050565b60008082846117b69190611ebe565b9050838110156117fb576040517f08c379a00000000000000000000000000000000000000000000000000000000081526004016117f290611dd7565b60405180910390fd5b8091505092915050565b6000611830600c54611822600b548561183790919063ffffffff16565b6118b290919063ffffffff16565b9050919050565b60008083141561184a57600090506118ac565b600082846118589190611f45565b90508284826118679190611f14565b146118a7576040517f08c379a000000000000000000000000000000000000000000000000000000000815260040161189e90611df7565b60405180910390fd5b809150505b92915050565b60006118f483836040518060400160405280601a81526020017f536166654d6174683a206469766973696f6e206279207a65726f0000000000008152506119cd565b905092915050565b600042600d54600660008573ffffffffffffffffffffffffffffffffffffffff1673ffffffffffffffffffffffffffffffffffffffff1681526020019081526020016000205461194c9190611ebe565b1080156119625750600e54611960836106f8565b115b9050919050565b60008383111582906119b1576040517f08c379a00000000000000000000000000000000000000000000000000000000081526004016119a89190611db5565b60405180910390fd5b50600083856119c09190611f9f565b9050809150509392505050565b60008083118290611a14576040517f08c379a0000000000000000000000000000000000000000000000000000000008152600401611a0b9190611db5565b60405180910390fd5b5060008385611a239190611f14565b9050809150509392505050565b600081359050611a3f816121d8565b92915050565b600081519050611a54816121ef565b92915050565b600081359050611a6981612206565b92915050565b600081519050611a7e81612206565b92915050565b600060208284031215611a9657600080fd5b6000611aa484828501611a30565b91505092915050565b60008060408385031215611ac057600080fd5b6000611ace85828601611a30565b9250506020611adf85828601611a5a565b9150509250929050565b600060208284031215611afb57600080fd5b6000611b0984828501611a45565b91505092915050565b600060208284031215611b2457600080fd5b6000611b3284828501611a5a565b91505092915050565b600060208284031215611b4d57600080fd5b6000611b5b84828501611a6f565b91505092915050565b60008060408385031215611b7757600080fd5b6000611b8585828601611a5a565b9250506020611b9685828601611a5a565b9150509250929050565b6000611bac8383611bb8565b60208301905092915050565b611bc181611fd3565b82525050565b611bd081611fd3565b82525050565b6000611be182611e79565b611beb8185611e9c565b9350611bf683611e69565b8060005b83811015611c27578151611c0e8882611ba0565b9750611c1983611e8f565b925050600181019050611bfa565b5085935050505092915050565b611c3d8161201b565b82525050565b611c4c8161203f565b82525050565b611c5b81612063565b82525050565b6000611c6c82611e84565b611c768185611ead565b9350611c86818560208601612075565b611c8f8161214f565b840191505092915050565b6000611ca7601b83611ead565b9150611cb282612160565b602082019050919050565b6000611cca602183611ead565b9150611cd582612189565b604082019050919050565b611ce981612011565b82525050565b6000602082019050611d046000830184611bc7565b92915050565b6000604082019050611d1f6000830185611bc7565b611d2c6020830184611ce0565b9392505050565b6000602082019050611d486000830184611c34565b92915050565b6000602082019050611d636000830184611c43565b92915050565b6000608082019050611d7e6000830187611c52565b8181036020830152611d908186611bd6565b9050611d9f6040830185611bc7565b611dac6060830184611ce0565b95945050505050565b60006020820190508181036000830152611dcf8184611c61565b905092915050565b60006020820190508181036000830152611df081611c9a565b9050919050565b60006020820190508181036000830152611e1081611cbd565b9050919050565b6000602082019050611e2c6000830184611ce0565b92915050565b6000606082019050611e476000830186611ce0565b611e546020830185611ce0565b611e616040830184611ce0565b949350505050565b6000819050602082019050919050565b600081519050919050565b600081519050919050565b6000602082019050919050565b600082825260208201905092915050565b600082825260208201905092915050565b6000611ec982612011565b9150611ed483612011565b9250827fffffffffffffffffffffffffffffffffffffffffffffffffffffffffffffffff03821115611f0957611f086120f1565b5b828201905092915050565b6000611f1f82612011565b9150611f2a83612011565b925082611f3a57611f39612120565b5b828204905092915050565b6000611f5082612011565b9150611f5b83612011565b9250817fffffffffffffffffffffffffffffffffffffffffffffffffffffffffffffffff0483118215151615611f9457611f936120f1565b5b828202905092915050565b6000611faa82612011565b9150611fb583612011565b925082821015611fc857611fc76120f1565b5b828203905092915050565b6000611fde82611ff1565b9050919050565b60008115159050919050565b600073ffffffffffffffffffffffffffffffffffffffff82169050919050565b6000819050919050565b60006120268261202d565b9050919050565b600061203882611ff1565b9050919050565b600061204a82612051565b9050919050565b600061205c82611ff1565b9050919050565b600061206e82612011565b9050919050565b60005b83811015612093578082015181840152602081019050612078565b838111156120a2576000848401525b50505050565b60006120b382612011565b91507fffffffffffffffffffffffffffffffffffffffffffffffffffffffffffffffff8214156120e6576120e56120f1565b5b600182019050919050565b7f4e487b7100000000000000000000000000000000000000000000000000000000600052601160045260246000fd5b7f4e487b7100000000000000000000000000000000000000000000000000000000600052601260045260246000fd5b6000601f19601f8301169050919050565b7f536166654d6174683a206164646974696f6e206f766572666c6f770000000000600082015250565b7f536166654d6174683a206d756c7469706c69636174696f6e206f766572666c6f60008201527f7700000000000000000000000000000000000000000000000000000000000000602082015250565b6121e181611fd3565b81146121ec57600080fd5b50565b6121f881611fe5565b811461220357600080fd5b50565b61220f81612011565b811461221a57600080fd5b5056fea264697066735822122029141f7021073ac3cb777b19db935c83de718182debbcf87c1f8de5440a787d464736f6c63430008040033",
  "linkReferences": {},
  "deployedLinkReferences": {}
}